:100000000C9408070C944F070C944F070C944F075F
:100010000C944F070C944F070C944F070C944F0708
:100020000C944F070C944F070C94812A0C94552B79
:100030000C94CC250C944F070C944F070C944F074D
:100040000C944F070C944F070C944F070C944F07D8
:100050000C944F070C9417260C944F070C944F07E1
:100060000C944F070C944F070C944F070C944F07B8
:100070000C944F070C944F070C944F070C944F07A8
:100080000C944F070C944F070C944F070C944F0798
:100090000C944F070C944F070C944F070C944F0788
:1000A0000C944F070C944F070C944F070101390033
:1000B0000102E001014B0103E0000102E10102E263
:1000C0000101490103E20103E1000102E00102E252
:1000D00001014D0103E20103E0000102E00102E23F
:1000E00001014C0103E20103E0000102E301012BE5
:1000F0000103E3000102E10102E3730103E30103F1
:10010000E1000102E36C0103E3000102E372010379
:10011000E300290014001A00080015001700310040
:1001200052002A00130012000C0018001C002D00C1
:10013000A9003A00A90000004100E10004001600F7
:10014000070009000A002F0028004C742E000F0041
:100150000E000D000B003000A8003B00AA000000BC
:10016000420000001D001B000600190005003600BB
:10017000500000004F005200330010001100370003
:10018000B6003C00A8000000430000000000175C1F
:10019000E20038612C4A00005100000000005100CC
:1001A0005000347128610000AA003D0000000000EA
:1001B0004400000000000000000000002B4B000085
:1001C0004F00000000000000000000004964000033
:1001D000AE003E003F00400045000000000000006F
:1001E000000000000000000000000000000000000F
:1001F00000000000000000000000000000000000FF
:1002000000000000000000000000000000000000EE
:1002100000000000000000000000000000000000DE
:1008E00000003D041E001F002000210022002A00FD
:1008F000B30001002200210020001F001E000100A3
:1009000001003A00A900000041000100230024007A
:100910002500260027004C000F08010027002600B4
:10092000250024002300010001003B00AA00000074
:1009300042000000010001000100360037002D00D8
:10094000010000004D004B000100010035000100D6
:1009500001003C00A800000043000000000001006E
:1009600001000100010000000100000000004E0035
:100970004A0001000100000001003D0000000000ED
:100980004400000000000000000000000100000022
:100990000100000000000000000000000100000055
:1009A00001003E003F00400045004B003A003B0084
:1009B0003C003D003E004B01C75C4A004300420042
:1009C000410040003F000100CB5C3A00A90000005C
:1009D00041004E003F00400041004200430028001B
:1009E000D75C4D00010001000100450044000100FA
:1009F000C45C3B00AA0000004200000001000100AE
:100A00000100440045003A04CA5C000001000100F6
:100A10000100010001003B04CF5C3C00A800000085
:100A2000430000000000010001000100010000007F
:100A3000C85C00000000010001000100010000008E
:100A4000CC5C3D00000000004400000000000000FD
:100A50000000000001000000C95C00000000000070
:100A60000000000001000000C55C3E003F004000A7
:100A7000450000000000000000002A2B28000000B4
:100A8000000000000000000000000000002900003D
:100A900000002C1E3420212224342627252E362D1A
:100AA0003738271E1F202122232425263333362EB4
:100AB00037381F0405060708090A0B0C0D0E0F1026
:100AC0001112131415161718191A1B1C1D2F31306B
:100AD000232D350405060708090A0B0C0D0E0F100F
:100AE0001112131415161718191A1B1C1D2F31304B
:100AF000354C000000000000000000000000000075
:100B00000000000000007E0F00D4FFFFFFC70000C0
:100B1000007832190A00047F3F1F643214643214D3
:100B2000783C1E1E140A052223252628292A2C2D4E
:100B30002F3032333536383A3B3D3E40424345470D
:100B4000494A4C4E5051535557595A5C5E60626445
:100B50006668696B6D6F71737577797B7D7F818353
:100B60008587898A8C8E90929496989A9C9E9FA154
:100B7000A3A5A7A8AAACAEAFB1B3B4B6B8B9BBBC75
:100B8000BEBFC1C2C3C5C6C7C9CACBCCCDCED0D1EA
:100B9000D2D2D3D4D5D6D7D7D8D9D9DADADBDBDBE2
:100BA000DCDCDCDCDCDDDDDDDDDCDCDCDCDCDBDB83
:100BB000DBDADAD9D9D8D7D7D6D5D4D3D2D2D1D0D7
:100BC000CECDCCCBCAC9C7C6C5C3C2C1BFBEBCBBD4
:100BD000B9B8B6B4B3B1AFAEACAAA8A7A5A3A19F4C
:100BE0009E9C9A98969492908E8C8A898785838110
:100BF0007F7D7B79777573716F6D6B6968666462F1
:100C0000605E5C5A5957555351504E4C4A494745BE
:100C10004342403E3D3B3A3836353332302F2D2C5F
:100C20002A292826252322FFAA7F554000010101F9
:100C30000101010101010202020202020202020399
:100C40000303030303030304040404040404050569
:100C5000050505060606060607070707070808082C
:100C600008090909090A0A0A0B0B0B0C0C0C0D0DDB
:100C70000D0E0E0E0F0F0F10101111111212131373
:100C80001414151516161717181819191A1A1B1BEC
:100C90001C1D1D1E1E1F2020212222232424252648
:100CA00026272829292A2B2C2D2D2E2F3031323280
:100CB000333435363738393A3B3C3D3E3F4041428C
:100CC000434445464748494A4C4D4E4F5051535472
:100CD000555658595A5B5D5E5F6162646566686926
:100CE0006B6C6D6F7072737577787A7B7D7E8082A6
:100CF000838587888A8C8E8F91939596989A9C9EEF
:100D0000A0A2A3A5A7A9ABADAFB1B3B5B7BABCBEFE
:100D1000C0C2C4C6C9CBCDCFD1D4D6D8DBDDDFE2CB
:100D2000E4E7E9EBEEF0F3F5F8FAFDFF0C03490018
:100D30004900490043004300000010036B006200BB
:100D40006A0075006E006B0079000000040309045E
:100D500009023B00020100A0FA090400000103019E
:100D6000010009211101000122400007058103084B
:100D7000000A09040100010300000009211101001B
:100D8000012232000705820320000A12011001002F
:100D9000000008EDFE00000100010200010501094C
:100DA00080A101850319012AB700150126B7009516
:100DB0000175108100C0050C0901A101850419010C
:100DC0002AA002150126A002950175108100C00518
:100DD000010906A101050719E029E715002501957C
:100DE000087501810295017508810105071900291F
:100DF000FF150026FF0095067508810005081901FA
:100E00002905950575019102950175039101C000B1
:100E100011241FBECFEFDAE0DEBFCDBF04B603FE64
:100E200027C080914F0390915003A0915103B0913E
:100E300052038730904BA740B04BD1F410924F0330
:100E400010925003109251031092520314BE84B7B3
:100E5000877F84BF0FB6F894A89580916000886161
:100E600080936000109260000FBEE0E0F8E3099507
:100E700011E0A0E0B1E0ECE3FDE502C005900D92C9
:100E8000A23BB107D9F723E0A2EBB1E001C01D926C
:100E9000AF34B207E1F70E94C3270C94642E0C9480
:100EA000000008950C9451070C94140A94E0899F53
:100EB000F0011124EE54FE4F608171818281938193
:100EC00008950895089508950E94A509E6ECF1E0BB
:100ED000A2EBB1E011921192119211921D921D920A
:100EE0001D921D9281E0EA3DF807A1F785E00E947E
:100EF0008B0F0C94400DBF92CF92DF92EF92FF9236
:100F00000F931F93CF93DF93C6ECD1E010E000E086
:100F1000612F8EE40E94CC0963E18EE40E944509B2
:100F2000C82E0E94D609D12CF12CE12C892B71F00E
:100F30002FEF83ED90E3215080409040E1F700C017
:100F400000000E94A509C12CD12C7601FE2CED2CAD
:100F5000DC2CCC24612F80E40E94CC0963E180E486
:100F60000E944509B82E0E94D609892B99F12FEFCE
:100F700083ED90E3215080409040E1F700C00000F5
:100F80000E94A50988819981AA81BB818C159D0544
:100F9000AE05BF0529F0C882D982EA82FB8201E052
:100FA0001F5F2496153009F0B3CF202F45E062EB88
:100FB00071E086EC91E00E948C0F0E94480D802F1A
:100FC000DF91CF911F910F91FF90EF90DF90CF9025
:100FD000BF900895CB28D6CF1092B9008CE08093B3
:100FE000B8000895EF92FF920F931F93CF93DF9372
:100FF000182FEB011092BC0084EA8093BC000E9481
:10100000FC257C018091BC0087FF27C08091B9003E
:10101000887F883029F08091B900887F8031D9F5A8
:101020001093BB0084E88093BC000E94FC258C01D7
:101030008091BC0087FF24C02091B900287F90E0F8
:1010400080E02831B1F081E090E0203411F490E0AC
:1010500080E09195819591090CC0CF3FDC0791F21A
:101060000E94FC258E199F098C179D0758F28EEF60
:101070009FEFDF91CF911F910F91FF90EF90089517
:10108000CF3FDC07A9F20E94FC25801B910B8C1737
:101090009D0770F2ECCF8FEF9FEFEBCF0F931F9375
:1010A000CF93DF93EB018093BB0084E88093BC0077
:1010B0000E94FC258C018091BC0087FF11C020910B
:1010C000B900287F81E090E0283211F490E080E0C0
:1010D000919581959109DF91CF911F910F9108957D
:1010E000CF3FDC0741F30E94FC25801B910B8C173E
:1010F0009D0708F38EEF9FEFEECF0F931F93CF93D3
:10110000DF93EC0184EC8093BC000E94FC258C01F1
:101110008091BC0087FF08C08091BB0090E0DF9108
:10112000CF911F910F910895CF3FDC0789F30E9463
:10113000FC25801B910B8C179D0750F38EEF9FEFC2
:10114000EECF0F931F93CF93DF93EC0184E880934E
:10115000BC000E94FC258C018091BC0087FF08C068
:101160008091BB0090E0DF91CF911F910F91089586
:10117000CF3FDC0789F30E94FC25801B910B8C1765
:101180009D0750F38EEF9FEFEECFCF92DF92EF925D
:10119000FF920F931F93CF93DF93C62F6A017901BC
:1011A000B8010E94F20797FD0CC0B8018C2F0E9475
:1011B0004E08E601EC0CFD1CCE15DF0511F097FF83
:1011C0000CC024E92093BC00DF91CF911F910F91B7
:1011D000FF90EF90DF90CF900895B80189910E9421
:1011E0004E08EACFCF92DF92EF92FF920F931F93B8
:1011F000CF93DF93F82EE62EEA016901B8010E9431
:10120000F20797FD15C0B8018E2D0E944E0897FD7C
:101210000FC0B8018F2D81600E94F207F12CE12CE4
:1012200021E0C21AD108EC14FD0400F597FF11C0AB
:1012300024E92093BC001816190614F490E080E00D
:10124000DF91CF911F910F91FF90EF90DF90CF90A2
:101250000895C8010E947D0897FD04C0FE01EE0DAF
:10126000FF1D80832FEFE21AF20ADDCF97FDE0CF5A
:10127000C8010E94A10897FDDBCFCC0DDD1D88833E
:10128000D7CF84E98093BC000895EF92FF920F932B
:101290001F93CF93DF930F92CDB7DEB7F82EE62ED4
:1012A000198268EE73E00E94F2079093DC0180934C
:1012B000DB01892B79F408EE13E021E030E0AE0188
:1012C0004F5F5F4F6E2D8F2D0E94F2089093DC01CF
:1012D0008093DB010E944109898180950F90DF9105
:1012E000CF911F910F91FF90EF900895EF92FF9291
:1012F0000F931F93CF93DF930F92CDB7DEB7F82EE6
:10130000E62E498368EE73E00E94F2079093DC01B9
:101310008093DB01892B79F408EE13E021E030E0C3
:10132000AE014F5F5F4F6E2D8F2D0E94C5089093C9
:10133000DC018093DB010E9441090F90DF91CF9186
:101340001F910F91FF90EF9008958091DA01811124
:1013500005C00E94EC0781E08093DA0140E060E084
:1013600080E40E9476094FEF6CE080E40E947609E9
:101370004FEF6DE080E40E94760940E060E08EE48B
:101380000E9476094FEF6CE08EE40E9476094FEFE1
:101390006DE08EE40C94760941E050E001C0440F0A
:1013A0006A95EAF7409562E10C9476098091DB0139
:1013B0009091DC010895CF93893A910571F0C1E0D5
:1013C0008A3A910519F5FB01C2818091DD01CC2398
:1013D00001F181110DC08FEF09C0FB01C281809125
:1013E000DD01CC2339F0811103C081E08093DD0160
:1013F000C0E00CC0813051F41092DD0189EA90E028
:101400000E940F0C89EA90E00E94240C8C2FCF914F
:1014100008958F3FD9F71092DD018AEA90E00E948B
:101420000F0C8AEA90E0F0CF80915002882309F4F3
:1014300098C180914E0290914F020E940826833CF1
:10144000914008F48EC1109250020E94CD198091F3
:101450004402909145024A97F1F48091460290919E
:1014600047022091480230914902822B932B209110
:101470004A0230914B02822B932B20914C023091E7
:101480004D02822B932B892B71F583EE0E94A21BB8
:1014900083EE0E94E81B80914402909145020597DB
:1014A000D9F48091460290914702209148023091F0
:1014B0004902822B932B20914A0230914B02822BBE
:1014C000932B20914C0230914D02822B932B892B30
:1014D00009F093C00E944B0D809144029091450207
:1014E0004A9709F08AC08091460290914702459739
:1014F00009F465C080914602909147020F97E9F484
:10150000809148029091490220914A0230914B0209
:10151000822B932B20914C0230914D02822B932BE6
:10152000892B71F582E091E00E943D0D809144028B
:10153000909145024A9709F060C0809146029091CF
:1015400047024697E9F48091480290914902209120
:101550004A0230914B02822B932B20914C02309106
:101560004D02822B932B892B09F072C084EF90E0FF
:101570000E943D0D80914402909145024A97E9F501
:101580008091460290914702479709F061C080918F
:1015900048029091490220914A0230914B02822BDD
:1015A000932B20914C0230914D02822B932B892B4F
:1015B00009F04EC08AEE90E00E943D0D1EC0809161
:1015C00048029091490220914A0230914B02822BAD
:1015D000932B20914C0230914D02822B932B892B1F
:1015E00009F0ABCF8AE091E00E943D0D809144026A
:1015F000909145024A9709F47DCF809144029091E1
:101600004502069729F5809146029091470204977A
:1016100009F049C08091480290914902079709F06A
:1016200087C080914A0290914B0220914C023091E8
:101630004D02822B932B892B09F07AC08AED90E022
:101640000E943D0D8091440290914502069721F140
:101650008091440290914502049729F580914602B9
:10166000909147022091480230914902822B932B9E
:1016700020914A0230914B02822B932B20914C02F5
:1016800030914D02822B932B892B09F06AC08AEB93
:1016900090E00E943D0D07C0809146029091470264
:1016A000049709F445C08091440290914502449703
:1016B000E9F48091460290914702209148023091CE
:1016C0004902822B932B20914A0230914B02822BAC
:1016D000932B20914C0230914D02822B932B892B1E
:1016E00009F03FC080EB90E00E943D0D80914402E4
:1016F000909145024697A9F5809146029091470244
:101700002091480230914902822B932B20914A026A
:1017100030914B02822B932B20914C0230914D0241
:10172000822B932B892BE9F48CEA90E00C943D0DED
:101730008091480290914902089709F0B4CF8091B6
:101740004A0290914B0220914C0230914D02822B23
:10175000932B892B09F0A7CF8AEC90E00E943D0DD6
:1017600077CF08950F93CF938091FB028160809390
:10177000FB0200E120E040E060E080E00E94801297
:10178000C0E00C2F20E04FEF6FEF8FEF0E94801230
:101790002FEF84E39CE0215080409040E1F700C0AF
:1017A0000000CF5FC03169F7CF910F910C943B16C9
:1017B000CF93DF939C013A9521153F4168F5EC01E9
:1017C000CC27D170DC01AA27B270AC014427547039
:1017D0009C012227387094FF11C080E1CD2B09F4C1
:1017E00080E0AB2B09F08062452B09F08064232B4D
:1017F00009F08068FB01DF91CF91099481E0CD2B46
:1018000009F480E0AB2B09F08260452B09F084607D
:10181000232B81F38860EECFDF91CF910895CF9392
:10182000DF93EC01805E9109089720F060E77EE18C
:10183000209711F46BE27CE1CE010E94D80B8C2F33
:10184000DF91CF910C94A21BCF93DF93EC010E9408
:10185000E81BCE01805E9109089720F067E77EE1E2
:10186000209711F462E37CE1CE01DF91CF910C94DB
:10187000D80B81E008950C94DB0908950C943D0C7D
:101880001F93CF93DF9300D000D00F92CDB7DEB778
:1018900049835A836B8330916C0289819A8131111B
:1018A0001DC06623B9F02223A9F00E943E23182F01
:1018B000682F89819A810E94EA2269817A81812F29
:1018C0000F900F900F900F900F90DF91CF911F917D
:1018D0000C94B10D0E941623182FEFCF0E943E23C7
:1018E00069817A81EDCFFC01262F4081518162818F
:1018F000738184810C94400CCF93DF93EC0160E002
:101900000E94730CBE01DF91CF910C943E0CFF92AC
:101910000F931F93CF93DF93E82FF0E0EE58F54F2E
:10192000F490C82FC695C695C695D0E0FE01EE5F2F
:10193000F44F0491877010E0082E02C015950795AA
:101940000A94E2F701701127CE50D54FFE01C491E1
:10195000D0E002C0D595C7958A95E2F7C170DD2722
:101960000115110519F081EE0E94A21B209719F0B4
:1019700086EE0E94A21B8F2D0E94101CCD2B19F009
:1019800086EE0E94E81B012B41F081EEDF91CF91A2
:101990001F910F91FF900C94E81BDF91CF911F9145
:1019A0000F91FF900895EF92FF920F931F93CF93A3
:1019B000DF938C01F62E8AE0E82EF80184918823CB
:1019C00009F454C0813009F04DC0E8012196FE01B0
:1019D0008491813091F42196FE0184910E94101C23
:1019E0008E010F5F1F4F8F2D815038F3EFE9FFE01D
:1019F0003197F1F700C00000F7CF823039F4E801E9
:101A00002296FE0184910E94A21BEACF833039F412
:101A1000E8012296FE0184910E94E81BE1CF843008
:101A2000F9F6E8012296FE01249190E080E0FE01A3
:101A300031962053330B2A30310548F0019780F25C
:101A4000EFE9FFE03197F1F700C00000F7CFE89E23
:101A5000A001E99E500D1124C901840F951F249106
:101A6000EF01E5CF0E94870CE801BACFDF91CF915B
:101A70001F910F91FF90EF90089560E00C94D30CAC
:101A80000E947524811102C00E9419250C945207EE
:101A90000C94540708950E94901E0E944A0D2FEF47
:101AA00084E39CE0215080409040E1F700C00000BA
:101AB0000C943B260F931F93CF93DF93EC0161E0CF
:101AC0000E94730C8C01BE010E943B0C882389F19B
:101AD000BE01C8010E94E719882359F1BE01C8015F
:101AE0000E942D18882329F1BE01C8010E947F1889
:101AF0008823F9F0BE01C8010E94A2198823C9F009
:101B0000BE01C8010E942517882399F08A81882385
:101B100039F001158CE5180751F0003E1C4579F0AD
:101B2000CE01DF91CF911F910F910C94390C0E943F
:101B30004B0D80E0DF91CF911F910F9108950E948E
:101B40001925F7CF08950C94A20D81E008950C9407
:101B5000A50DCF93C82F0E94A30D8C2FCF910C946D
:101B6000A70D972F70E024E1929F600D711D112445
:101B7000FB0194E6899FE00DF11D1124EE0FFF1F7C
:101B8000EE5EFE4F859194910895CF93DF930E946E
:101B9000B10D0E94B10EEC01811522E59207E8F526
:101BA000811531E5930708F0ACC0883E910510F52A
:101BB000803E910570F5883A910570F4853A91055B
:101BC00008F078C08130910521F1009711F1049758
:101BD00000F5D0E0C0E01DC08F3B9105D0F7C85A9A
:101BE000D0E0CC0FDD1FCC5DDE4F0990D881C02D39
:101BF000D4640FC0811540E5940708F066C0C11594
:101C000080E4D80708F05EC0CE019A9581159F4107
:101C100000F7CE01DF91CF910895811536E5930746
:101C200018F5811545E5940708F083C0C11584E5D2
:101C3000D80708F079C09C2F969596959E01237041
:101C40003327C115D34508F461C0C1E0D0E002C01C
:101C5000CC0FDD1F2A95E2F730E2939FC0011124DB
:101C6000C82BD92BDA68D5CFC1158AE5D80778F407
:101C7000C11599E5D90708F066C0C11528E5D20756
:101C800008F4A7CFDC2FCC27C06FD06AC2CFCE011B
:101C900090568115904208F09CCF8D2F8F710E9435
:101CA000480F90E0982F882788279F719C012C2B44
:101CB000E90147C0C55AD0E0CE5ADE4FC881D0E016
:101CC000D064A7CFDF70D06AA4CFE4E09695879563
:101CD000EA95E1F783702C2F26952695237040E234
:101CE000249F90011124382B8C2F8370C1E0D0E009
:101CF00002C0CC0FDD1F8A95E2F7C22BD32BDC6824
:101D000088CFD82FCC27C16FD06A83CFC1E0D0E075
:101D100002C0CC0FDD1F2A95E2F720E2929FC0019E
:101D20001124C82BD92BEBCFDC2FCC27C46FD06A62
:101D300070CF0E94480FC82FD0E0DC2FCC27CC27D3
:101D4000DF71D06266CF8C2F8F700E94480F34E015
:101D5000D695C7953A95E1F7CF709C2FEC01D069E5
:101D600058CF82389105B1F1B0F48133910509F46F
:101D700075C048F48932910509F469C08A32910529
:101D800009F473C008958533910509F459C0893366
:101D9000910501F10895833E9105A9F138F4803E43
:101DA0009105F9F0823E910549F10895863E91052D
:101DB000A9F1873E9105C9F1843E910519F520915D
:101DC000410321FF1FC08091400384FD14C087EEB2
:101DD00090E00895209140032370A1F080EE90E000
:101DE00008952091400320FD47C03091410330FF0A
:101DF00009C024FF44C090E080E004C0209140036B
:101E000022FDF7CF08952091400322FD3BC0309181
:101E1000410330FDE3CF24FFF5CFEDCF2091400308
:101E200023FFF0CF24FDE7CFD2CF2091400323FD45
:101E30002CC03091410331FFEECF84EE90E0089545
:101E40002091400325FFDECF89E290E008952091A4
:101E5000400325FFD7CF85E390E00895209140030C
:101E600026FFD0CF8AE290E008952091400326FF1C
:101E7000C9CF81E390E0089589E390E0089583EE6F
:101E800090E0089582EE90E0089586EE90E0089547
:101E90009091400392FF06C0282F28712830F9F452
:101EA000877F846093FF06C0282F28712831F1F4C2
:101EB000877E84612091410320FF06C0382F38714E
:101EC0003830D9F4877F816021FF06C0282F287120
:101ED0002831D1F4877E816194FD877E0895282F73
:101EE00024712430F9F68B7F8860DCCF282F247191
:101EF000243101F78B7E8861DDCF382F317131308D
:101F000019F78E7F8860E0CF282F2171213121F7CA
:101F10008E7E8861E1CF0895FF920F931F93CF9338
:101F2000DF93F82ED92F8B01C42F222349F081E0B3
:101F30008093E0010E94FC259093DF018093DE01F5
:101F40008091E001882399F08091DE019091DF017A
:101F50000E9408260B9758F0EF2DFD2FD80190E036
:101F600080E0D0E08C179D0744F01092E001DF91F3
:101F7000CF911F910F91FF9008950191119121919F
:101F800031910D931D932D933D930196EBCFEF92DD
:101F9000FF920F931F93CF93DF93EB01E82FD111A3
:101FA00010C0442321F0F0E0E45DF34FE4916E2F84
:101FB0007E2F8E2FDF91CF911F910F91FF90EF9089
:101FC00008950D2F10E0282F30E0442329F0245DE0
:101FD000334FF901249130E0F6E0CF9FC001112486
:101FE000EFEFF0E0BF010E94132DAB018C2F90E0CA
:101FF000880F991FA5E5A49FB001A59F700D11241E
:10200000861B970B982F990F980FBF01601B710BC0
:10201000629FD001639FB00D729FB00D11248B2F72
:102020009D9FB0011124672F7727EF01C61BD70BA7
:10203000BE01629FE001639FD00D729FD00D1124FD
:102040007F01E91AF108E09EB001E19E700DF09E5B
:10205000700D1124672F7727E61BF70BE29F800195
:10206000E39F100DF29F100D1124E12F722F4230CB
:10207000510599F048F44115510569F04130510579
:1020800081F0EB2F8D2F07C04430510569F080F0AF
:1020900046305105B1F76E2F8DCFE22F7B2F812F68
:1020A000FACFE22F7D2FF7CFEB2F822F712FF3CFB7
:1020B0007B2F822FED2FEFCF41E00C94C70F0895B7
:1020C0000C945C10CF93DF93762FE901682F842F57
:1020D0000E946010798368838A83DF91CF9108958D
:1020E00080910703982F9E7F29F4817082608093EE
:1020F000070308958635E8F381708465F8CF88E09A
:1021000090E00C94052ECF92DF92EF92FF926B013C
:102110007C010E947010B701A60188E090E0FF905A
:10212000EF90DF90CF900C94232EE7E0F3E083E074
:10213000808311828FEF8283838314826081718117
:10214000828193810C9483108091070380FF02C0E9
:102150008695089580E0089590910B03933018F4CC
:102160009F5F90930B03882351F060910703709158
:1021700008038091090390910A030C948310089539
:1021800081E00C94AC1090910B03992319F09150BD
:1021900090930B03882351F060910703709108031B
:1021A0008091090390910A030C948310089581E0B3
:1021B0000C94C31070E00C94951760910801809105
:1021C000070380FF0AC08091070123E0829FC001BE
:1021D0001124845F9C4F0C94DA1080910901909136
:1021E0000A0123E0829FF0011124E45FFC4F89176C
:1021F00050F71182108212828F5F3396F8CF909140
:10220000070390FF14C09091090120910A0133E067
:10221000939FF0011124E45FFC4F921710F00C948F
:10222000DD108183608342839F5F3396F6CF0895EC
:10223000CF93DF9300D00F92CDB7DEB79091070315
:1022400090FF0AC09E012F5F3F4F0E9462104B819A
:1022500069818A810E94FF100F900F900F90DF918B
:10226000CF910895CF93DF93EC01EC81F0E0E95D2D
:10227000F44F4491E7E0F3E0628181810E941811FC
:102280008C818F5F8C83DF91CF910895CF93DF9303
:10229000EC01E7E0F3E0438162818C810E94181138
:1022A0008C818F5F8C83DF91CF9108950F931F9363
:1022B000CF93DF9300D00F92CDB7DEB78C01809122
:1022C000E10181110AC09E012F5F3F4F4FEF6FEF79
:1022D0000E9462108A818093E101F801648161307B
:1022E00069F08091E10140E0662361F040E06230F6
:1022F00011F44091E10180E060E004C06091E101EF
:1023000040E080E00E94FF10F801848190E0019697
:1023100063E070E00E94272D84830F900F900F9050
:10232000DF91CF911F910F910895AF92BF92CF92FD
:10233000DF92EF92FF920F931F93CF93DF9300D022
:102340000F92CDB7DEB7182FF62E042FE22E909104
:10235000070390FF29C0E92FE695AE2FB0E0AB5AF6
:10236000BE4F8C9180933D029E7F923059F59E0125
:102370002F5F3F4F812F0E9462104B8169818A81BC
:102380000E94FF1010930803F092090300930A03C0
:10239000EE2051F0609107037091080380910903CA
:1023A00090910A030E9483100F900F900F90DF917D
:1023B000CF911F910F91FF90EF90DF90CF90BF9042
:1023C000AF900895823019F400910A03DBCF863074
:1023D00019F410910803D6CF8930D9F3893191F6D9
:1023E000E9518E2F8170D82EE695F0E0E95DF34F2C
:1023F000A590B490C12CBB2460910B01C61618F0B7
:102400000E94DD10BFCF2C2D30E0A29EC001A39E04
:10241000900DB29E900D112470E00E94132D812F1B
:10242000D11013C0860F40910901420F532F511D47
:102430009A01220F331F240F351F245F3C4F402F7A
:102440006F2D0E946210C394D7CF861BECCFE7E0BC
:10245000F3E09181282F438162818AE0890F0C94F7
:10246000951181E00C942712E7E0F3E09181282F89
:102470004381628186EF890F0C94951181E00C9461
:102480003412E7E0F3E062812FE0620F08F46FEFAF
:10249000282F438181810C94951181E00C94411285
:1024A000E7E0F3E062812FE0621B08F460E0282F90
:1024B000438181810C94951181E00C945012E7E0E6
:1024C000F3E043812FE0420F08F44FEF282F6281A1
:1024D00081810C94951181E00C945F12E7E0F3E0A8
:1024E00043812FE0421B08F440E0282F6281818164
:1024F0000C94951181E00C946E1220E00C949511CF
:102500000F939091070390FF19C02017B8F4013181
:10251000A8F493E0299FF0011124E45FFC4F81832C
:10252000608342832F5F33960213F9CF0E94DD1040
:102530008FE99FE00197F1F700C000000F91089527
:10254000EF92FF921F93CF93DF93EC0110E0EE2404
:10255000EA94F12C60910B01161770F00E94DD10C7
:102560009A818C8190FF27C08F5F8C83DF91CF9100
:102570001F91FF90EF90089520910901422F410F84
:102580005527551FCA019A01220F331F280F391FE3
:10259000245F3C4F70E0C7010E94272D962F8C814D
:1025A00040910A0360910903199F800D11240E9434
:1025B00062101F5FCFCF8150D8CFBF92CF92DF92F2
:1025C000EF92FF920F931F93CF93DF93FC018281D1
:1025D0000FEF80FF01E010E080910B011817C0F0B1
:1025E0000E94DD108091E301013009F051C081119A
:1025F00002C080910B0181508093E301DF91CF9164
:102600001F910F91FF90EF90DF90CF90BF900895B2
:10261000C0910901C12ED12CCC0DDD2DD11DCE01D3
:10262000880F991FC80FD91FC45FDC4F1982188209
:102630001A8234E0E32EF12CB12C8091E3018B0D52
:10264000813104F18F70082E000C990BC816D90641
:1026500091F480910A038E9DA0018F9D500D11244D
:1026600055954795559547959E0160910903809131
:1026700008030E946210B00EF1E0EF1AF108E9F6CB
:102680001F5FAACF87FFDFCF90910B01890FDBCFB0
:1026900090E0019660910B0170E00E94272DACCF75
:1026A0000F931F93CF93DF938091090190910A01BB
:1026B00023E0829FF0011124E45FFC4F891740F171
:1026C000C0E0D3E060910B01C61740F10E94DD101D
:1026D000209105018091E201820F8093E2019091A7
:1026E0000601920F90930601191654F4082E000C5F
:1026F000990B40910B014150550B841795071CF025
:10270000219520930501DF91CF911F910F9108959D
:102710001182108212828F5F3396D0CF0C2F10E07F
:1027200070E0C8010E94272D20910901820F482FD7
:1027300050E02091E201022E000C330B0217130728
:10274000BCF020910601022E000C330B201731073C
:102750007CF08D9F90011124245F3C4F40910A032F
:1027600060910903809108030E946210CF5FAACF95
:10277000FA01EE0FFF1FE40FF51FE45FFC4F11821B
:1027800010821282F3CF8F929F92AF92BF92CF921C
:10279000DF92EF92FF920F931F93CF93DF93EC01A1
:1027A0004C81042F10E09801D8010E946B2D9B01F1
:1027B000AC010E94812D4B015C01E0E2F0E0E01BE6
:1027C000F10BA5E5B0E0AC019B010E94812D6B01EE
:1027D0007C019F01DF010E94632D9B01AC010E94DF
:1027E0008C2D9B01AC01280D391D4A1D5B1DC701B5
:1027F000B6010E943B2DF22E822F90E039E23F1568
:1028000060F143E0249F9001112435952795122F04
:10281000109500E085E5E82EEF1880910B01081770
:1028200058F10E94DD109C8181E0992319F09032CB
:1028300019F48FEF8093040180910401890F8C8338
:10284000DF91CF911F910F91FF90EF90DF90CF908C
:10285000BF90AF909F908F90089525E530E0B9012B
:10286000681B790B9B01220F331F260F371F37FF81
:10287000CCCF2F5F3F4FC9CF8E2D01FD8F2D2091E3
:102880000901622F600F7727771F9B01220F331FEB
:10289000260F371F245F3C4F412F609109030E9490
:1028A00062100F5FBACF0F931F93CF93DF93EC01AA
:1028B00010E000E090910B019017110609F06CF404
:1028C0000E94DD108C8190E00196817099278C83A5
:1028D000DF91CF911F910F91089520910901A801D7
:1028E000420F511D9A01220F331F240F351F245F01
:1028F0003C4F4C8160910903809108039695901795
:10290000110651F04CF0442349F040910A030E9413
:1029100062100F5F1F4FCECF4423B9F340E0F7CFD3
:102920008F929F92AF92BF92CF92DF92EF92FF92DF
:102930000F931F93CF93DF93FC01B280948081E0CB
:10294000848300E015E05BE4A52E88248394EE24C4
:10295000EA94F12C7BE4C72ED12C80910B0108174F
:1029600070F0DF91CF911F910F91FF90EF90DF906A
:10297000CF90BF90AF909F908F900C94DD10C02FA0
:10298000D0E01C9FF0011D9FF00D1124EC51FE4F73
:1029900091101CC01382128220910901CE01820F76
:1029A000911D9C01220F331F280F391F245F3C4FBC
:1029B0001C9FF0011D9FF00D1124EC51FE4F428130
:1029C000618180810E9462100F5FC7CF2381222323
:1029D00079F12150238334818A2D821B311101C06A
:1029E000822F1C9FF0011D9FF00D1124EC51FE4F12
:1029F00090910A03899FC0011124B6010E94132DF2
:102A00006283211104C0332311F01482A38222E0D7
:102A10002B1510F21C9FF0011D9FF00D1124EC519D
:102A2000FE4F809108038083809109038183B4CF96
:102A30000E94E02D823091400CF0AECF82E08B15E9
:102A400030F50E94E02DB7010E94272D1C9FF00158
:102A50001D9FF00D1124EC51FE4F808322E02B15B9
:102A6000C8F40E94E02D209109032695622F70E0A2
:102A70000E94272D280F1C9FF0011D9FF00D11248F
:102A8000EC51FE4F21831282A382848285CF8091F4
:102A90000803DCCF20910903EECFE7E0F3E080816B
:102AA0008E7F808360817181828193810E948310F7
:102AB00010923E022FEF80E792E02150804090403C
:102AC000E1F700C000000C94DD10E7E0F3E0808146
:102AD0008E7F808310923E022FEF80E792E021509C
:102AE00080409040E1F700C000000C94DD1010928F
:102AF0003E0280913B0281110AC081E080933B023B
:102B000080910703817080933A020C9465150895B3
:102B100060910703669570E04BE050E08CE091E037
:102B20000E94F02D892B19F481E080933E020E94CF
:102B3000FC25909335028093340208959091070309
:102B400090FF35C09170811128C092609093070367
:102B5000662351F060910703709108038091090387
:102B600090910A030E94831060910703669570E0BC
:102B70004BE050E08CE091E00E94F02D892BA1F019
:102B800010923E0281E08093370240910A036091E7
:102B90000903809108030C947D128B3210F0946528
:102BA000D5CF880F982BD2CF0E948815EBCF0895F0
:102BB000682F90910703969581E0890F8B3208F07A
:102BC00081E00C949E1581E00C94D815682F9091AB
:102BD000070396958FEF890F09F48AE20C949E15EE
:102BE00081E00C94E61561E00C949E15E7E0F3E0BB
:102BF00080818160808386950C94F3158091070312
:102C000080FD0C944D150C94F61560E00C949E1507
:102C100080913C0281112EC00E947524811104C054
:102C20000E9419250E9495100E947F10609307034F
:102C3000709308038093090390930A036E7F61F4F5
:102C40000E9495100E947F10609307037093080301
:102C50008093090390930A030E94701010923E0221
:102C60008091070380FF03C086950E94051681E0CE
:102C700080933C0208950E947F1060930703709335
:102C800008038093090390930A030E9470108091B7
:102C9000070380FF03C086950C9405160895E7E0AE
:102CA000F3E080818160808386950C9405161092F4
:102CB0003B0280913A0281110E944F160C948815B4
:102CC0000F931F93CF93DF9380913E02882309F4E3
:102CD0009DC080913D02E0910703E695E81BE093DB
:102CE00036028230C9F5F0E0ED5DF44FE491CE2F6D
:102CF000D0E002E311E180913702882389F010923D
:102D000037020E94FC259E0120953095820F931F6B
:102D10009093350280933402109239021092380257
:102D200080913402909135020E9408268C179D07ED
:102D300008F46CC0E0913402F0913502CE0FDF1F31
:102D4000D0933502C093340284E392E0F801DF911E
:102D5000CF911F910F910994863049F4F0E0E05E25
:102D6000F44FE491CE2FD0E006E411E1C4CF8930D6
:102D700051F4E695F0E0E35EF44FE491CE2FD0E01D
:102D800000EA12E1B8CF8F3051F4E695F0E0E65E4C
:102D9000F44FE491CE2FD0E00DED12E1ACCF8531B0
:102DA00049F4F0E0E95EF44FE491CE2FD0E000E585
:102DB00013E1A1CFC8E2D0E003EC13E1883109F4BC
:102DC0009ACF833239F4E5E1FBE0C591D49106E571
:102DD00011E191CFC4EFD1E003E514E1843209F4AD
:102DE0008ACFC0EDD7E00FE510E1853209F083CF3F
:102DF0008E2F63E00E94072DE92FF0E0EE5EF44F86
:102E0000E491CE2FD0E000E914E175CFDF91CF91AE
:102E10001F910F910895FA01811101C0FB010994DE
:102E2000CF93DF93C82FD62F0E94A4108C1740F0A9
:102E30000E94A4108D1720F4DF91CF910C94E3151C
:102E40008C2FDF91CF910C94F3150F931F93CF9399
:102E50008C01FB01C281CC2309F465C00E94D323FD
:102E60008272F801E45CFC45E431F10538F4EA597A
:102E7000F14D0C945D2D0E94FE15C0E08C2FCF917A
:102E80001F910F91089540EF55E163EE75E10E94A7
:102E90000B17F3CF43EE55E160EF75E1F8CF4EE34A
:102EA00052E161E372E1F3CF41E352E16EE372E19B
:102EB000EECF4CE552E16DE472E1E9CF4DE452E131
:102EC0006CE572E1E4CF4AE752E16BE672E1DFCFF5
:102ED0004BE652E16AE772E1DACF47ED50E160EC90
:102EE00070E1D5CF40EC50E167ED70E1D0CF81E0EB
:102EF0000E94F315C2CF65E082E00E941017BDCF9B
:102F000068E086E0FACF6EE089E0F7CF64E18FE019
:102F1000F4CF67E185E1F1CF88E1EACF62E289E1B0
:102F2000ECCF83E2E5CFC1E0A9CF849A41B34F7ED5
:102F300051B35061EFB7F8949B01220F331F260F56
:102F4000371F280F391F2817390741F4EFBF8FE5C6
:102F500094E00197F1F700C000000895DC016D9145
:102F6000CD0178E051BB000000C067FF41BB660F98
:102F7000000000C000C000C041BB00C07A9591F7BE
:102F8000E2CF0F931F93CF93DF93C42FD22FFC0177
:102F900082818823C9F0409341020E94FC259093CE
:102FA000400280933F0280E28C0F883008F050C0CE
:102FB000C77081E001C0880FCA95EAF7DF91CF9111
:102FC0001F910F910C942B1C10914102141335C0CA
:102FD00080913F02909140020E940826883C910512
:102FE00060F5C0E2CD0F1D17B9F080E2810F883087
:102FF00040F4177081E001C0880F1A95EAF70E942B
:10300000321CC83048F481E09D2F977001C0880FB2
:103010009A95EAF70E942B1C802F0E94101CC83042
:10302000B8F4D77081E001C0880FDA95EAF7DF9134
:10303000CF911F910F910C94321C80E28C0F88303D
:1030400038F4C77081E001C0880FCA95EAF7EFCF66
:10305000DF91CF911F910F9108950F939C01CB01A8
:10306000253F4CE5340759F1A8F42A3DFCE53F071C
:1030700001F12B3D4CE53407D1F1293D3C4591F45C
:1030800006E221EE41EE69ED7CE50E94C11780E089
:103090000F910895273FFCE53F07E9F0B0F0283F86
:1030A0003C45F9F0FC018281882339F110924102FC
:1030B000EFCF07E225EE45EE6AED7CE5E6CF06E2CE
:1030C00021EE40EE65EF7CE5E0CF07E225EE44EE31
:1030D00066EF7CE5DACF06E221EE42EE67EF7CE5B3
:1030E000D4CF07E225EE46EE68EF7CE5CECF08E2CE
:1030F00021E045EE6BED7CE5C8CF81E0C9CFCF93F1
:10310000DF93EC01FB018281882309F419C1C230ED
:10311000FCE5DF07C0F1C6319CE5D90730F09E0120
:103120002C5F3C452930310570F50E94882490932E
:10313000410380934003C031ECE5DE0709F4CFC0C2
:1031400008F05BC0C8308CE5D80709F4B6C088F534
:10315000C430ECE5DE0709F4A8C0C0F4C2308CE549
:10316000D80709F49CC0809140038260C330DC45DD
:1031700009F498C080914003909141030E949624E5
:103180000E94901E80E0DF91CF91089580914003CE
:103190008061C630ECE5DE0709F484C0809140030D
:1031A0008860C730DC4508F47DC0809140038062B0
:1031B00079C0CC308CE5D80709F489C070F48091CF
:1031C00040038C60CA30ECE5DE0709F46BC008F4FC
:1031D00078C0809140038E7F65C0CE308CE5D807E3
:1031E00009F479C0809140038B7FCF30DC4508F42F
:1031F00059C0809140038F7E55C0CD3FECE5DE077E
:1032000009F457C030F5C3318CE5D80709F46FC015
:1032100078F4C131ECE5DE0709F465C0C231DC4564
:1032200009F0A8CF0E94901E809140038F773AC08A
:10323000C5318CE5D80709F462C008F476C08091E6
:1032400041038160CC3FDC4509F094CF809341037A
:1032500091CFC130FDE5DF0709F44DC088F48091BE
:1032600041038D7FCF3F9CE5D90781F380914103D6
:103270008E7FC115DD4550F3809141038360E6CF19
:10328000C330FDE5DF0709F459C008F444C080E00D
:10329000C430DD4509F06ECF0E941B256BCF8091B5
:1032A000400381608093400365CF80914003846038
:1032B000F9CF809141038260C9CF8091400380643F
:1032C000F1CF0E94901E809140038068EBCF8091E7
:1032D00040038D7FE7CF80914003877FE3CF8091CC
:1032E00040038F7DDFCF809140038F7BDBCF8091C8
:1032F0004003837FD7CF809141038C7FA7CF8091FC
:10330000400382FB992790F921E0922790FB82F9F4
:1033100090FB83F9C7CF80914103982F90959170CE
:103320008E7F892B90FB81F991CF0E94901E909106
:103330004003892F97FB87F98058B4CF81E0ACCF49
:1033400081E021CFCF93DF93EB0186319C4511F5CE
:103350000E94D3239A81992399F08A7A91E009F403
:1033600090E090934202811109C089E20E94AE234D
:103370000E94122480E0DF91CF91089585E3F6CF7B
:1033800080914202811104C089E20E94B523F0CFEE
:1033900085E3FBCF81E0EFCF08950895809150023F
:1033A000811114C00E94CC1981E0809350020E94C8
:1033B000FC2590934F0280934E0210924302E4E466
:1033C000F2E08AE0DF011D928A95E9F708951F93E4
:1033D000CF93DF93EC01FB011281111106C011E0C4
:1033E000812FDF91CF911F91089580915002882302
:1033F00081F180914E0290914F020E940826823CFA
:10340000914068F7CE019056811520E2920720F096
:10341000905E8115904108F4DD278091430285304C
:1034200098F4E82FF0E0EE0FFF1FEC5BFD4FD18327
:10343000C0838F5F809343020E94FC2590934F02CC
:1034400080934E0210E0CCCF109250020E94CD1912
:10345000F3CFC731DC4519F60E94CE19C1CF909346
:103460005602809355020895E0915502F09156025C
:10347000309721F00190F081E02D099480E00895CB
:10348000E0915502F0915602309721F00280F381CD
:10349000E02D099408952091530230915402281789
:1034A000390771F09093540280935302E0915502D2
:1034B000F0915602309721F00680F781E02D0994B3
:1034C000089520915102309152022817390771F066
:1034D0009093520280935102E0915502F09156026E
:1034E000309721F00084F185E02D0994089585B787
:1034F000806885BF85B7806885BF08950895089561
:103500000C947E1A0C94B20B0E94771A0E947F1AB8
:103510000C94801A81E008950C948A1A08950895F5
:103520000E94F3250E9464070E945F260E940816ED
:103530000C94821A4F925F926F927F929F92AF92F9
:10354000BF92CF92DF92EF92FF920F931F93CF9390
:10355000DF93CDB7DEB72A970FB6F894DEBF0FBE64
:10356000CDBF0E948E1A0E948F1A0E947B070E9474
:103570008C1A882309F490C048E5A42E42E0B42EAA
:1035800010E000E0902E802F0E9456072B013C0196
:10359000F501C190D190E190F1905F01C414D50480
:1035A000E604F70409F472C08091FB0281FD0E94D9
:1035B0006307B701A601442555256625772520E038
:1035C000C12CD12C7601C394DB01CA018C219D2131
:1035D000AE21BF21892B8A2B8B2B09F44FC02E8360
:1035E0009F824C205D206E207F2081E04528462868
:1035F000472809F480E088870E94FC258160782FA5
:103600009A8789874E815F8168858A850E94731BAE
:10361000000F111F000F111FF801E85AFD4F8081A4
:103620009181A281B3818C259D25AE25BF25808304
:103630009183A283B3830E9460160E94341A9091F2
:1036400057028917D1F10E94341A809357022A96A3
:103650000FB6F894DEBF0FBECDBFDF91CF911F91A3
:103660000F91FF90EF90DF90CF90BF90AF909F9021
:103670007F906F905F904F900C94A90D2F5FCC0CB2
:10368000DD1CEE1CFF1C243109F09ECF0F5F1F4F85
:103690000530110509F076CF8FEF89838A831B826D
:1036A0000E94FC258160782F9D838C8349815A81FB
:1036B0006B818D810E94731BBECF2A960FB6F89442
:1036C000DEBF0FBECDBFDF91CF911F910F91FF9055
:1036D000EF90DF90CF90BF90AF909F907F906F90D2
:1036E0005F904F900895CF93DF93CDB7DEB72B97C0
:1036F0000FB6F894DEBF0FBECDBF4F8358876987E2
:103700007A878B871E821D8285E0FE013796DE0157
:10371000119601900D928A95E1F749815A816B814A
:103720007C818D819E812B960FB6F894DEBF0FBEF3
:10373000CDBFDF91CF910C944221FC01808191811A
:103740000C948023CF93C82F882309F43FC08CEFBB
:103750008C0F813AA0F46C2F809117019091180181
:103760000E943225882329F08C2F0E94B5230E94C5
:1037700012248C2F0E94AE23CF910C94122480E24D
:103780008C0F883048F4C77081E001C0880FCA955B
:10379000EAF70E94D623F0CFEBE5EC0FE33040F4DC
:1037A000F0E0E255FE4F808190E0CF910C944B1AEF
:1037B000C85AC73158F4EC2FF0E0EE0FFF1FE05865
:1037C000FE4F80819181CF910C94611ACF91089521
:1037D000882329F19CEF980F913A20F40E94B52399
:1037E0000C94122490E2980F983050F4877091E076
:1037F00001C0990F8A95EAF7892F0E94DC23F0CF48
:103800009BE5980F933020F490E080E00C944B1AE5
:10381000885A873120F490E080E00C94611A089572
:10382000CF93C82F0E94A21BC93369F42FEF87EEF4
:1038300093E0215080409040E1F700C000008C2FC1
:10384000CF910C94E81B2FEF89EF90E0215080403E
:103850009040E1F7F2CF882321F00E94D6230C9408
:1038600012240895882321F00E94DC230C94122452
:103870000895BF92CF92DF92EF92FF920F931F9322
:10388000CF93DF937C01D62FC72FFC0105810295D2
:103890000F70128111110E94F3230E94CC23D82EA5
:1038A000882391F01123E9F08C2F807F803421F060
:1038B00080E28D0F8830A8F082E00E945D240E9493
:1038C000CC2391E0D82ED926CC2EC2949FE0C922D9
:1038D000FBE0FC15A8F1EC2DF0E0E658F14D0C945E
:1038E0005D2DD12CF1CF0C2F0F70C07F11F0029500
:1038F000007F1123A9F0002359F080E28D0F88305A
:1039000010F0D11109C0802F0E94D6230E941224EA
:103910008D2F0E94A21B14C0802F0E94E623F6CF99
:103920008D2F0E94E81B002359F080E28D0F883014
:1039300010F0D1112BC0802F0E94DC230E94122492
:10394000EC2DE850FF0B349720F40E94341A0E94AB
:10395000A90DDD2009F47BC10E94C82380FD77C139
:10396000F70112820E94C2230E944E22C7010E94C8
:10397000481E0E94C223DF91CF911F910F91FF90AB
:10398000EF90DF90CF90BF900C946F22802F0E9419
:10399000EC23D4CF2C2F2F70B22EC07FC03219F061
:1039A000B29480EFB822DD2339F0D13019F1112320
:1039B00061F1002321F1ACCF112381F0011106C088
:1039C0000E94F9238B290E942B1CBACF0130C1F72A
:1039D0000E94F9238B290E94FF23B2CF011106C058
:1039E0000E9408248B2D0E94321CAACF013009F4BA
:1039F000A7CFF6CF112329F0063008F0A1CF8B2DE9
:103A0000E2CF053008F09CCFEDCF002359F3D93336
:103A100009F015C13FEF87EE93E0315080409040B0
:103A2000E1F700C000008D2F0E94E81B89CF8C2F8A
:103A300086958695837069F0813009F081CF8D2F4E
:103A40009C2F9370111102C090E080E00E94611AD7
:103A500077CF8D2F9C2F9370111102C090E080E0E2
:103A60000E944B1A6DCF8C2F837009F041C0111149
:103A700067CF4D2F429546954770440F440F0D2F49
:103A80000F7010E030E020E0042E04C0000F111F82
:103A9000221F331F0A94D2F760E070E0CB01D4FFFD
:103AA0000FC06FE070E080E090E004C0660F771F09
:103AB000881F991F4A95D2F76095709580959095CB
:103AC000C695C695C370602B712B822B932BC23089
:103AD00049F058F4C13019F00E94002231CF0E9401
:103AE000EE212ECF0E9412222BCF0E94EC2128CF54
:103AF0008695112311F08C2F8170882309F420CF33
:103B00004D2F429546954770440F440F0D2F0F706F
:103B100010E030E020E0042E04C0000F111F221F2F
:103B2000331F0A94D2F760E070E0CB01D4FF0FC0DE
:103B30006FE070E080E090E004C0660F771F881FA0
:103B4000991F4A95D2F76095709580959095C69586
:103B5000C695C370602B712B822B932BC23049F01A
:103B600058F4C13019F00E94C522EACE0E94B32257
:103B7000E7CE0E94D722E4CE0E942822E1CECF7069
:103B8000112329F08C2F0E944E228D2F1CCF8D2FB8
:103B90000E94321C8C2F0E946F22D2CED23F89F11C
:103BA00060F4D03FC9F0D13F29F1112309F442C09C
:103BB0000111AECE8C2F8F7121C0D33F39F1D43F8C
:103BC000A1F7112369F1CF718C2F0E944E2263E07F
:103BD0008C2F0E944824B4CE112341F0053008F008
:103BE000AFCE8C2F8F710E949222AACE063008F0A1
:103BF000A7CEF7CF8C2F8F71112369F20E944E222E
:103C00009FCE8C2F8F711123C9F3C5CF112329F0BB
:103C10008C2F8F710E94392293CE0E94342290CE35
:103C200081E00E945D24023008F48ACE82E00E9486
:103C30005D2486CE0111EBCE8C2F8F71ACCFEFEFD0
:103C4000F9EF20E0E150F0402040E1F7EACEDF91CB
:103C5000CF911F910F91FF90EF90DF90CF90BF9089
:103C600008950F931F93CF93DF93EC0168817981BF
:103C70008A810E948A238C010E94E9220E94EB2102
:103C8000B801CE01DF91CF911F910F910C94391C97
:103C9000CF93DF93EC018B819C81892B29F0888164
:103CA000998189238F3F59F4DF91CF910895CE01F7
:103CB0000E94311ECE01DF91CF910C947C0CCE017D
:103CC0000E945A0D8111F3CF0E94CC23882361F307
:103CD0008A81882349F382E0DF91CF910C945D249F
:103CE000882321F00E94E6230C941224089588234F
:103CF00021F00E94EC230C94122408950E94F323D7
:103D00000E94F6230E94122490E080E00E944B1A49
:103D100090E080E00C94611A0E94BC230C947E1EFB
:103D20000E94E3230C948C1EE92FE295EF70E25081
:103D3000EE3070F4F0E0EA57F14D0C945D2D803FC9
:103D400019F020F4883E20F481E00895843FE1F3E7
:103D500080E00895883EC0F3813FD1F7F5CF93FB13
:103D6000882780F908950E9480230C94941ECF9395
:103D7000DF9300D000D00F92CDB7DEB70F900F9039
:103D80000F900F900F90DF91CF910895CF93DF9315
:103D900000D000D000D0CDB7DEB726960FB6F8948D
:103DA000DEBF0FBECDBFDF91CF9108951F93CF939C
:103DB000DF93C0916D0216E080916E028C1304C0F7
:103DC000DF91CF911F910895D0E01C9FF0011D9FBE
:103DD000F00D1124E159FD4F4081518162817381C1
:103DE000848195810E94C61E2196C770E5CF4091BF
:103DF0009F025091A0026091A1027091A202809155
:103E0000A3029091A4020C94C61E20916D02909181
:103E10006E0256E0291302C080E0089530E0529F00
:103E2000F001539FF00D1124E159FD4F718176137C
:103E300006C07081781303C07281741304C02F5FB1
:103E40003F4F2770E7CF81E008951F93CF93DF9313
:103E50008091A402807FA9F48091A102882389F037
:103E600080916D02C0916E0260919F027091A002DC
:103E7000A091A202B091A302D62FD72316E0C813B7
:103E800004C0DF91CF911F91089590E0109711F039
:103E9000DF3F19F401968770F2CF189F9001199FA8
:103EA000300D1124F901E159FD4F41814713F2CF43
:103EB00040814613EFCF42814111ECCF43815481C1
:103EC0004A1B5B0B483C510528F78091A4028F7078
:103ED00080618093A402F901EC58FD4F80818F70BE
:103EE000806180838FE992E00E94481EDF91CF912C
:103EF0001F910C94D61E8F929F92AF92BF92CF9239
:103F0000DF92EF92FF920F931F93CF93DF93CDB782
:103F1000DEB761970FB6F894DEBF0FBECDBF8C0140
:103F200085E0F801DE011D9601900D928A95E1F77A
:103F3000D801EC901196FC9011971296CC901297A4
:103F40008FE9A82E82E0B82E4091A2025091A302E0
:103F50004115510509F474C190919F022091A0026E
:103F6000892F82238F3F09F46BC113968D909C900B
:103F70001497D090A102F401E41BF50BDD2009F4A5
:103F80000AC18091A402382F307FE83CF10508F087
:103F9000C1C0311189C0DC2C2F1126C09E1124C054
:103FA000C11022C08F7080618093A4020E94F71E0E
:103FB000C5010E94481E8091A402D80115968C93D9
:103FC0008D2D61960FB6F894DEBF0FBECDBFDF9189
:103FD000CF911F910F91FF90EF90DF90CF90BF9006
:103FE000AF909F908F9008958114910429F08F2DA8
:103FF0008E218F3F09F043C180E080FF15C04C2D1A
:104000006F2D8E2D0E94051F882371F08FE992E09D
:104010000E94481E86E0EFE9F2E0DF011D928A95DA
:10402000E9F70E94F71E3EC0892829F08F2D8E21C6
:104030008F3F09F021C180E0B82FB170AB2E80FF17
:1040400029C04C2D6F2D8E2D0E94051FB82E811179
:1040500021C0ED86FE868D859E850E948023292FB6
:1040600022952F70223050F0243078F49F7051F058
:10407000F8019581907F31F4DB2CA2CF9F7011F075
:104080008823D1F3805E8830B8F3C8010E94481EAF
:10409000BA2CF2CFCC2009F493CF8091A402816096
:1040A0008093A402D12C8CCF2F1105C09E1103C088
:1040B000CC2009F48DC0ED86FE868D859E850E94FC
:1040C000B31E882319F1CC2009F18091A40280321B
:1040D00070F020919F023091A00238872F831986BB
:1040E0009B868A868C87CE0107960E94481E86E0B2
:1040F000F801AFE9B2E001900D928A95E1F70E94D4
:10410000251F0E94F71EDD24D3945ACFC8010E94B8
:10411000481EF9CF311112C0782D998A888AA701DB
:104120006C2D89890E94B71E8FE992E00E94481E7B
:1041300086E0F50111928A95E9F773CF2F110FC030
:104140009E110DC0C1100BC015968C93C8010E9422
:10415000481E86E0F50111928A95E9F731CFED8688
:10416000FE868D859E850E94B31E882379F2CC2021
:1041700069F28091A402803208F4B9CF20919F02A5
:104180003091A0023A8329831B829D828C828E8388
:10419000CE010196AACFE83CF10508F043C0DC2C23
:1041A000CC2009F4B3CF2F112CC09E112AC08091CE
:1041B000A40280FD1DC0982F907FD1F015968C939E
:1041C0001597903F39F0982F907F905F8F70892BD3
:1041D00015968C93C8010E94481E86E0F801AFE94D
:1041E000B2E001900D928A95E1F70E94F71EE8CEA9
:1041F00086E0F801AFE9B2E001900D928A95E1F70F
:10420000DFCEED86FE868D859E850E94B31E8111D0
:104210006ECF8091A40281608093A402C8010E94A5
:10422000481ECECE782D998A888AA7016C2D89895F
:104230000E94B71E86E0F50111928A95E9F7D5CF65
:10424000CC2009F463CFED86FE868D859E850E9485
:10425000B31ED82E882309F459CF86E0F801AFE9C0
:10426000B2E001900D928A95E1F78FE992E00E9409
:104270009D1B0E94251FB9CF81E08C25DDCE81E0FA
:104280008C25BBCE1F93CF93DF93CDB7DEB72C9792
:104290000FB6F894DEBF0FBECDBF4F835887698736
:1042A0007A878B879C87CE0107960E947B1F882385
:1042B00069F08A859B85892B39F04F815885842F39
:1042C00085238F3F09F071C016E05FC086E0FE01D4
:1042D0003796DE01119601900D928A95E1F78A8555
:1042E0009B85892B89F38F81988589238F3F61F383
:1042F00020916E0230E0C9010196877099274091A4
:104300006D024817190671F40E94901E10926E02F9
:1043100010926D0286E0EFE9F2E0DF011D928A95CE
:10432000E9F7D2CF96E0929FD001939FB00D112470
:10433000A159BD4FFE01319601900D929A95E1F77A
:1043400080936E020E94D61EBFCF819FC0011124B0
:1043500081599D4F0E947B1F8823E9F0E0916D02F7
:104360001E9FF0011124E159FD4F4081518162816E
:104370007381848195810E94C61E80916D0290E0B8
:1043800001968770992780936D0280916D029091BC
:104390006E028913DACF2C960FB6F894DEBF0FBEEB
:1043A000CDBFDF91CF911F91089569857A858B8567
:1043B0009C850E94C61E88CF08950C94DC210E9423
:1043C000DD216093EA027093EB028093EC029093FC
:1043D000ED020C947E1E08950C94DF210F931F9321
:1043E0000091EA021091EB022091EC023091ED0273
:1043F000602B712B822B932B1F910F910C94DF213B
:104400000F931F930091EA021091EB022091EC02AE
:104410003091ED0260237123822393231F910F912A
:104420000C94DF210F931F930091EA021091EB028D
:104430002091EC023091ED026027712782279327AB
:104440001F910F910C94DF210C94DC210C942422F9
:104450000E9426226093E6027093E7028093E802AE
:104460009093E9020C947E1E60E070E0CB010C9406
:1044700028220F931F9341E050E060E070E08A0132
:104480009B0104C0000F111F221F331F8A95D2F712
:10449000C901B8011F910F910C9428220F931F930B
:1044A00041E050E060E070E004C0440F551F661F1B
:1044B000771F8A95D2F78091E6029091E702A0914A
:1044C000E802B091E9028A019B01082B192B2A2BE3
:1044D0003B2BC901B8011F910F910C9428220F9317
:1044E0001F9341E050E060E070E004C0440F551FAE
:1044F000661F771F8A95D2F7CB01BA016095709538
:10450000809590950091E6021091E7022091E802D3
:104510003091E90260237123822393231F910F912D
:104520000C9428220F931F9341E050E060E070E06C
:1045300004C0440F551F661F771F8A95D2F78091DC
:10454000E6029091E702A091E802B091E9028A01A7
:104550009B01082719272A273B27C901B8011F916A
:104560000F910C9428220F931F930091E602109153
:10457000E7022091E8023091E902602B712B822B37
:10458000932B1F910F910C9428220F931F9300914E
:10459000E6021091E7022091E8023091E9026023DF
:1045A0007123822393231F910F910C9428220F9340
:1045B0001F930091E6021091E7022091E8023091EA
:1045C000E90260277127822793271F910F910C948E
:1045D0002822089524E1929F800D1124982F97702E
:1045E00041E001C0440F9A95EAF786958695869535
:1045F00095E0899FF0011124EB55FD4F90E080E09C
:1046000070E05191DF0111979B01082E02C0369591
:1046100027950A94E2F72170219525272423252741
:104620002C9301968530910561F7089524E1929FBE
:10463000800D1124982F977086958695869525E094
:10464000829FF0011124EB55FD4F50E040E080E0E7
:10465000219130E0092E02C0369527950A94E2F7A1
:1046600021703327042E01C0220F0A94EAF7822B0F
:104670004F5F5F4F4530510559F70895BF92CF9274
:10468000DF92EF92FF920F931F93CF93DF938C01F2
:10469000C090E602D090E702E090E802F090E902D4
:1046A0008091EA029091EB02A091EC02B091ED02B0
:1046B000C82AD92AEA2AFB2ACFE1D0E0BC2ED701AA
:1046C000C6010C2E04C0B695A795979587950A94B8
:1046D000D2F780FD0EC0219788F7B12C8B2DDF918A
:1046E000CF911F910F91FF90EF90DF90CF90BF90EF
:1046F0000895B8018C2F0E94C50D019761F3EECF8C
:10470000CF93DF93EC010E943E23BE01DF91CF9156
:104710000C94C50D1F93CF93DF93EB0190916C0226
:10472000992331F0CB01DF91CF911F910C9480231D
:10473000882379F0CB010E943E23182F682FCE01E9
:104740000E94EA22BE01812FDF91CF911F910C942C
:10475000C50DCB010E941623182FF4CF682F80912E
:104760001701909118010C946825682F809117010A
:10477000909118010C946A2580911701909118016D
:104780000C946C258091EE0285958595859508950C
:104790008091EE02877008959091EE02977081E00B
:1047A00009F480E008958091FA0208959091FA0248
:1047B000892B8093FA02089580959091FA029823AC
:1047C0009093FA0208951092FA0208959091F902D6
:1047D000892B8093F902089580959091F90298238E
:1047E0009093F90208951092F90208951092F80238
:1047F00008958091EF02089508950C94FC23909100
:10480000EF02981721F08093EF020C94FD23089596
:104810008091EF02882329F01092EF0280E00C943F
:10482000FD230895E0911701F09118018091FA029B
:104830008083E0911701F091180180819091F90235
:10484000892B8083E0911701F0911801808190916C
:10485000F802892B80839091EF02992381F0E091F7
:104860001701F09118018081892B808380911701B5
:10487000909118010E94202581110E9408248091A6
:104880001701909118010C94401A08950C94452436
:1048900098E0899F90011124622B6093EE020E94A0
:1048A0004E228091EE028595859585950C9446243F
:1048B0001092EE0280E00C9446249091EE028095D6
:1048C00089238093EE02282F277071F4282F082E59
:1048D000000C330B9217130639F085958595859555
:1048E0000E946F220C945824089590E080E00E946A
:1048F0000B2E21E08C3E9E4F09F020E0822F089580
:1049000082E090E00C94FD2D83E090E00C94FD2D6E
:10491000CF9384E090E00E94FD2DC82F81E290E0CB
:104920000E94FD2D982F8C2FCF910895CF93C92FE2
:10493000682F84E090E00E94112E6C2F81E290E0BD
:10494000CF910C94112EAB01BC018FE090E00C9440
:10495000232EAB01BC0183E190E00C94232E60E098
:1049600070E0CB010C94A92460E070E0CB010E94C0
:10497000A3240C94AF246CEE7EEF90E080E00E94C4
:104980002F2E60E082E090E00E94112E60E083E034
:1049900090E00E94112E1092EA021092EB02109207
:1049A000EC021092ED0260E084E090E00E94112E93
:1049B00060E081E290E00E94112E60E085E090E0EE
:1049C0000E94112E60E086E090E00E94112E6FEFB1
:1049D00087E090E00E94112E40E050E0BA0188E0AC
:1049E00090E00E94232E60E08DE090E00E94112E66
:1049F00040E050E0BA0188E190E00E94232E60E0A0
:104A000087E190E00E94112E40E050E0BA018CE175
:104A100090E00E94232E60E080E290E00E94112E40
:104A200040E050E0BA0188E190E00E94232E0C940F
:104A3000B4240C94BB24682F8EE090E00C94112ECB
:104A40009C012E5F3F4FAC01485F5F4F80E0241711
:104A5000350709F40895F90191919F019923B9F35C
:104A60008F5FF5CF662349F0FC01329608962191BD
:104A7000261729F0E817F907D1F780E0089581E0BB
:104A800008959C01FC0132969FEF80E0419146170A
:104A900051F09F3F19F4411101C0982F8F5F86306C
:104AA000A9F79F3F09F40895290F311D97FD3A9505
:104AB000F90162830895FC0132960896219126132C
:104AC00003C0DF0111971C92E817F907B9F70895A1
:104AD0000C9441250C945B25029626E0FC01119272
:104AE0002A95E9F7089508950C9473250E9474257A
:104AF00080914603843059F11092FC0288E190E0E5
:104B000020E40FB6F894A895809360000FBE209320
:104B1000600080E00E94A90D0E9477150E94742514
:104B200083B7817F846083BF83B7816083BF7894BC
:104B3000889583B78E7F83BF0FB6F894A895809130
:104B40006000886180936000109260000FBE08953D
:104B5000CF930E9461070E947B070E946207C0E01A
:104B60008C2F0E945607672B682B692B31F4CF5F7F
:104B7000C530B1F780E0CF91089581E0FCCF089572
:104B80000C94BF250E94901E0E94341A0E94A90D09
:104B90000E9457160C94C0251F921FB61F92112415
:104BA0008F939F93AF93BF938091FC02811113C0A9
:104BB00080913C0390913D03A0913E03B0913F034F
:104BC0004196A11DB11D80933C0390933D03A0939A
:104BD0003E03B0933F03BF91AF919F918F911F9080
:104BE0001FBE1F90189582E084BD93E095BD9AEF9B
:104BF00097BD80936E0008952FB7F89480913C0381
:104C000090913D03A0913E03B0913F032FBF0895C3
:104C10009C014FB7F89480913C0390913D03A09183
:104C20003E03B0913F034FBF821B930B08957894CE
:104C30001F921FB61F9211248F939F93AF93BF9320
:104C400080913C0390913D03A0913E03B0913F03BE
:104C50000196A11DB11D80933C0390933D03A09349
:104C60003E03B0933F03BF91AF919F918F911F90EF
:104C70001FBE1F90189581E08093E00080E2809332
:104C8000D8001092C9008FE19EE40197F1F700C0AF
:104C9000000087E090EBDC0180934F03909350037A
:104CA000A0935103B093520388E19CE00FB6F894AF
:104CB000A895809360000FBE90936000FFCF0E9484
:104CC0007524811102C00E9419250E9480248093BE
:104CD000FB020E94882490934103809340030E942A
:104CE0008424682F70E090E080E00E94EC216091C5
:104CF000E6027091E7028091E8029091E9020C943B
:104D000026228091050308950895CF93DF9300D064
:104D10000F92CDB7DEB790914603943019F5898391
:104D20007B836A8382E08093E9008FEF9091E800B3
:104D3000815095FD06C095ED9A95F1F7000081111F
:104D4000F5CF8091E80085FF0DC050E040E063E0C2
:104D500070E0CE0101960E9476288091E8008E775F
:104D60008093E8000F900F900F90DF91CF910895FE
:104D7000BC0184E00C948526BC0183E00C9485265C
:104D8000CF93DF93EC0181E08093E9008FEF909166
:104D9000E800815095FD06C095ED9A95F1F7000069
:104DA0008111F5CF8091E80085FF14C050E040E00C
:104DB00068E070E0CE010E9476288091E8008E774E
:104DC0008093E80088E0FE01ADEFB2E001900D9223
:104DD0008A95E1F7DF91CF91089580914503811184
:104DE00009C00E94062A0E94632A8091E200846022
:104DF0008093E20008951092450308950895089560
:104E00000C94C22542E061EC81E00E94822942E2DA
:104E100061EC82E00C94822980914803833009F48C
:104E20005FC030F48130C1F1823009F49BC0089535
:104E30008A3009F487C08B3009F46DC0893009F0DD
:104E40004EC080914703813209F049C080914B03E5
:104E500090914C03029708F042C08091E800877F50
:104E60008093E8008091E80082FF35C09091F300C4
:104E70008091F200029729F48091F1008B7F8130BC
:104E800021F48091F100809305038091E8008B77F5
:104E90008093E8000C94B62980914703813AF9F495
:104EA0008091E800877F8093E80080914B03909188
:104EB0004C03892B61F468E08DEF92E070E00E9472
:104EC000C5288091E8008B778093E800089560E022
:104ED00090E080E0F3CF809146038111C3CF089525
:104EE00080914703813AD9F780914B0390914C030D
:104EF000892BA9F78091E800877F8093E800809153
:104F0000E80080FFFCCF809123018093F100809125
:104F1000E8008E77BDCF80914703813201F7809101
:104F20004B0390914C03892BD1F68091E800877F49
:104F30008093E8000E94B629809149038093230161
:104F40000C94901E80914703813249F68091E800CD
:104F5000877F8093E8000E94B62980914A0380935E
:104F60000603089580914703813A09F0B8CF8091F4
:104F7000E800877F8093E8008091E80080FFFCCF05
:104F800080910603C2CF84B7877F84BF0FB6F894A1
:104F9000A895809160008861809360001092600005
:104FA0000FBE80E890E00FB6F89480936100909374
:104FB00061000FBE0E94841A0E94062A0E94632A82
:104FC0008091E20084608093E20078940E94EC2C4F
:104FD0000E94901A89E191E00E942F1A8091460365
:104FE000853039F00E949A1A0E948E1A0E948F1AF8
:104FF000F5CF0E94762580914403882379F30E949F
:10500000A825882359F30E946028E8CF0C9408282B
:10501000292F33272330310519F168F42130310568
:1050200009F444C02230310509F445C090E080E025
:1050300030E020E025C02132310549F1223231052E
:10504000A9F780E490E02FEC3DE061157105C1F017
:1050500082E390E02DE93DE06130710589F0E6CF13
:1050600099278130910581F0009729F00297F1F698
:10507000ECE2FDE002C0ECE4FDE0849190E09F01F1
:10508000FA01318320830895EAE3FDE0F6CF89E059
:1050900090E022E63DE06115710591F389E090E032
:1050A0002BE73DE06130710559F3C0CF82E190E01C
:1050B0002BE83DE0E5CF8BE390E020E53DE0E0CF5D
:1050C00080E189BD82E189BD09B400FEFDCF8091F8
:1050D000D8008F7D8093D8008091E000826080931B
:1050E000E0008091E00081FDFCCF0895AF92BF9277
:1050F000CF92DF92FF920F931F93CF93DF936C01B8
:10510000EB018A010E94D529F82E811123C00115D7
:10511000110539F0F80180819181C81BD90BC80EA7
:10512000D91EB12CA12C2097A9F08091E80085FD13
:1051300022C08091E8008E778093E8000115110568
:10514000A1F0F80180819181A80EB91EB182A082E0
:1051500085E0F82E8F2DDF91CF911F910F91FF9059
:10516000DF90CF90BF90AF9008950E94D5298823FB
:10517000D1F2F82EEFCFF60181916F018093F1000B
:105180002197FFEFAF1ABF0ACECFFC0180914D03EC
:1051900090914E0386179707A0F06115710529F4C9
:1051A0009091E8009E779093E80090E0611571057A
:1051B00051F4911108C08091E80082FF34C080E072
:1051C0000895BC01F2CF809146038823C1F1853058
:1051D000C1F18091E80083FD30C08091E80082FD3C
:1051E000EACF8091E80080FFE1CF8091F300209129
:1051F000F200382F6115710519F02830310558F08B
:1052000091E02830310509F090E02091E8002E77F8
:105210002093E800CBCF81918093F1006150710918
:105220002F5F3F4FE7CF80914603882341F08530C1
:1052300041F08091E80083FFBECF81E0089582E0D5
:10524000089583E00895FC0180914D0390914E03F1
:1052500086179707A0F06115710529F48091E80081
:105260008E778093E80090E06115710551F49111FB
:1052700008C08091E80082FF35C080E00895BC013D
:10528000F2CF809146038823C9F18530C9F180911E
:10529000E80083FD31C08091E80082FDEACF809173
:1052A000E80080FFE1CF8091F3002091F200382FD9
:1052B0006115710519F02830310558F091E028305A
:1052C000310509F090E08091E8008E778093E80046
:1052D000CBCF84918093F1003196615071092F5F9B
:1052E0003F4FE6CF80914603882341F0853041F05F
:1052F0008091E80083FFBDCF81E0089582E00895AA
:1053000083E00895982F973028F08F708093E900FC
:1053100081E008959093E900242F762F50E09817AC
:1053200031F07091EC002091ED005091F00021FDE2
:1053300002C09F5FE8CF3091EB003E7F3093EB00DF
:105340003091ED003D7F3093ED003091EB00316006
:105350003093EB007093EC002093ED005093F0003D
:105360002091EE0027FDE5CF80E00895809147036E
:1053700087FF13C08091E80082FF06C08091E8009B
:105380008B778093E80004C0809146038111F2CFAF
:105390000895809146038823D9F38091E80080FF27
:1053A000F8CF8091E8008E77ECCF2091E400309127
:1053B000E50095E6A9012091EC00822F817020FF85
:1053C00006C08091E80080FF06C080E0089520912B
:1053D000E80022FD1AC080914603882389F08530B9
:1053E00089F08091EB0085FD0FC02091E4003091A1
:1053F000E50042175307F9F29150E1F684E0089571
:1054000082E0089583E0089581E008950E94742A5F
:105410000E947C2AE0EEF0E0808181608083E8EDEC
:10542000F0E080818F77808319BCA7EDB0E08C918C
:105430008E7F8C9380818F7E8083109245030895A8
:105440000F931F93CF93DF930E94742A0E947C2AAC
:10545000C8EDD0E088818F778883888180688883D1
:1054600088818F7D888319BC109246031092420375
:10547000109244031092430300EE10E0F801808183
:105480008B7F808388818160888342E060E080E058
:105490000E948229E1EEF0E080818E7F8083E2EE3F
:1054A000F0E0808181608083808188608083F80162
:1054B00080818E7F8083888180618883DF91CF9116
:1054C0001F910F910895E8EDF0E080818F7E808339
:1054D000E7EDF0E080818160808384E082BF81E03D
:1054E000809345030C94202AE8EDF0E080818E7FC4
:1054F00080831092E20008951092DA001092E10089
:1055000008951F920F920FB60F9211242F933F937D
:105510004F935F936F937F938F939F93AF93BF93BB
:10552000EF93FF938091E10082FF0BC08091E20036
:1055300082FF07C08091E1008B7F8093E1000E9491
:10554000EB2C8091DA0080FF19C08091D80080FF99
:1055500015C08091DA008E7F8093DA008091D900A7
:1055600080FF96C080E189BD82E189BD09B400FE5B
:10557000FDCF81E0809346030E94ED268091E100FB
:1055800080FF19C08091E20080FF15C08091E20089
:105590008E7F8093E2008091E20080618093E20040
:1055A0008091D80080628093D80019BC85E08093F8
:1055B00046030E94FF268091E10084FF2BC080916A
:1055C000E20084FF27C080E189BD82E189BD89B501
:1055D000982F917080FFFBCF8091D8008F7D8093B2
:1055E000D8008091E1008F7E8093E1008091E200FD
:1055F0008F7E8093E2008091E20081608093E200E0
:1056000080914203882309F449C084E080934603D3
:105610000E9400278091E10083FF29C08091E20071
:1056200083FF25C08091E100877F8093E10082E0C5
:1056300080934603109242038091E1008E7F809315
:10564000E1008091E2008E7F8093E2008091E20091
:1056500080618093E20042E060E080E00E94822965
:105660008091F00088608093F0000E94FE26FF91F8
:10567000EF91BF91AF919F918F917F916F915F91CA
:105680004F913F912F910F900FBE0F901F90189543
:1056900019BC109246030E94FB2670CF8091E30054
:1056A00087FD93E090934603B3CF1F920F920FB6FE
:1056B0000F9211242F933F934F935F936F937F9398
:1056C0008F939F93AF93BF93CF93DF93EF93FF930A
:1056D000D091E900DF708091EC00C82FC17080FD8F
:1056E000C0E81092E9008091F000877F8093F0007D
:1056F00078940E94992B1092E9008091F0008860C4
:105700008093F000CD2BCF70C093E900FF91EF9113
:10571000DF91CF91BF91AF919F918F917F916F91C9
:105720005F914F913F912F910F900FBE0F901F905F
:1057300018951F93CF93DF93CDB7DEB7AA970FB617
:10574000F894DEBF0FBECDBF87E493E02091F10057
:10575000FC012193CF01F3E08F349F07B9F70E943A
:105760000C278091E80083FF1EC180914703909130
:1057700048039A3008F017C1E92FF0E0EC56F14DDC
:105780000C945D2D803899F0823809F00CC180911D
:105790004B038F70873008F006C18093E900809139
:1057A000EB0085FB882780F91092E90006C0809104
:1057B000430390914403911182609091E800977F98
:1057C0009093E8008093F1001092F1008091E8003E
:1057D0008E77E5C0882309F4D3C0823009F0E3C096
:1057E000809149038111D6C080914B038F702FEFB8
:1057F000280F263008F0D7C08093E9002091EB00F5
:1058000020FFC8C0933031F48091EB008062809318
:10581000EB00C0C09091EB0090619093EB0021E011
:1058200030E001C0220F8A95EAF72093EA00109237
:10583000EA008091EB008860EACF8111B4C010913A
:1058400049031F778091E3008078812B8093E300E8
:105850008091E800877F8093E8000E94B6298091BC
:10586000E80080FFFCCF8091E30080688093E30034
:1058700082E0111183E08093460395C08058823006
:1058800008F091C08091490390914A038C3D23E038
:105890009207A1F583E08A838AE289834FB7F8945F
:1058A000DE01139620E03EE051E2E32FF0E050935A
:1058B0005700E49120FF03C0E295EF703F5FEF7067
:1058C0008E2F90E0EA30C0F0C7968D939D932F5FA6
:1058D000243159F74FBF8091E800877F8093E8001B
:1058E0006AE270E0CE0101960E94C5288091E8002E
:1058F0008B778093E80057C0C096E7CF60914B0349
:1059000070914C03AE014F5F5F4F0E940628BC01AF
:10591000892B09F448C09091E800977F9093E800A4
:1059200089819A810E942329E1CF8038E1F5809115
:10593000E800877F8093E800809142038093F10024
:1059400045CF811130C090914903923060F580912C
:10595000E800877F8093E800909342030E94B62975
:1059600080914203882311F084E005C08091E30018
:1059700087FDFACF81E0809346030E94022713C07F
:1059800080914903813079F481E0933009F080E01F
:10599000809344031092E9008091E800877F809310
:1059A000E8000E94B6298091E80083FF0AC0809138
:1059B000E800877F8093E8008091EB00806280930D
:1059C000EB00AA960FB6F894DEBF0FBECDBFDF91F5
:1059D000CF911F9108950895CF9380914603882316
:1059E000A1F0C091E900CF709091EC00892F8170F7
:1059F00090FD80E8C82B1092E9008091E80083FDBB
:105A00000E94992BCF70C093E900CF910895991B04
:105A100079E004C0991F961708F0961B881F7A95A5
:105A2000C9F780950895AA1BBB1B51E107C0AA1FA7
:105A3000BB1FA617B70710F0A61BB70B881F991F2F
:105A40005A95A9F780959095BC01CD01089597FBD3
:105A5000072E16F4009407D077FD09D00E94132D6D
:105A600007FC05D03EF4909581959F4F0895709561
:105A700061957F4F0895A1E21A2EAA1BBB1BFD0161
:105A80000DC0AA1FBB1FEE1FFF1FA217B307E4071D
:105A9000F50720F0A21BB30BE40BF50B661F771F75
:105AA000881F991F1A9469F7609570958095909555
:105AB0009B01AC01BD01CF010895EE0FFF1F0590C2
:105AC000F491E02D09940E946B2D332312F48A1B6C
:105AD0009B0B0C947C2DA29FB001B39FC001A39F90
:105AE000700D811D1124911DB29F700D811D112417
:105AF000911D08950E946B2DB7FF0895821B930B93
:105B000008950E946B2DA59F900DB49F900DA49FAA
:105B1000800D911D11240895B7FF0C94812D0E94D2
:105B2000812D821B930B08958F929F92AF92BF920B
:105B3000CF92DF92EF92FF92CF93DF93EC016881D7
:105B400079818A819B81611571058105910521F417
:105B500064E279ED8BE597E02DE133EF41E050E031
:105B60000E94452E49015A019B01AC01A7EAB1E40C
:105B70000E94812D6B017C01ACEEB4EFA501940174
:105B80000E948F2DDC01CB018C0D9D1DAE1DBF1D14
:105B9000B7FF03C00197A109B04888839983AA83FE
:105BA000BB839F77DF91CF91FF90EF90DF90CF90F5
:105BB000BF90AF909F908F9008950E94942D08956C
:105BC00080E091E00E94942D0895B0E0A0E08093E1
:105BD000000190930101A0930201B0930301089585
:105BE000FC014150504030F001900616D1F731973A
:105BF000CF010895882799270895F999FECF92BD7E
:105C000081BDF89A992780B50895A6E1B0E044E0F7
:105C100050E00C94372EA8E1B0E042E050E00C9444
:105C2000372E262FF999FECF92BD81BDF89A0197A4
:105C300000B4021639F01FBA20BD0FB6F894FA9AD4
:105C4000F99A0FBE08950396272F0E94122E0E94E4
:105C5000112E252F0E94122E242F0C94122E019605
:105C6000272F0E94122E0C94112EDC01CB01FC0177
:105C7000F999FECF06C0F2BDE1BDF89A319600B4A5
:105C80000D9241505040B8F70895052E97FB1EF431
:105C900000940E945C2E57FD07D00E943B2D07FC0C
:105CA00003D04EF40C945C2E509540953095219580
:105CB0003F4F4F4F5F4F0895909580957095619538
:105CC0007F4F8F4F9F4F0895F894FFCF3B17431797
:105CD0004A174F17541759175E17631768176D1730
:105CE000721777177B1780178317861789178C17FA
:105CF0008E179117731C731CCA1CCA1C171DA01C7D
:105D0000A01CA01C331DBF1DCE1DCE1D9F1E9F1E9F
:105D1000A81EA81EAA1EA81EA81EA81E9F1E9F1E63
:105D2000AF1EA81EA81EAF1EC22BEA2BD32CEA2B37
:0C5D3000D32C1D2C3E2CD32C952CA12C28
:105D3C0001000000010102001000101001191A1BD3
:105D4C001C1D1E1F202122F0028126C0268426BC89
:105D5C0026B82601E200E900EA00B500B600B7005B
:105D6C00CD008301CC008A0192019401210223020F
:105D7C0024022502260227022A02B300B4006F0077
:105D8C0070008182830001020202020606060909E4
:105D9C00090909090F0F0F0F0F0F151515181919F0
:105DAC0019191919191919192324252525252525FA
:105DBC00E200E900EA00B500B600B700CD008301AF
:105DCC00CC008A01920194012102230224022502B3
:105DDC00260227022A02B300B4006F0070008182F1
:025DEC00830032
:00000001FF
