:100000000C94BA090C94010A0C94010A0C94010A8C
:100010000C94010A0C94010A0C94010A0C94010A34
:100020000C94010A0C94010A0C9446310C941A3277
:100030000C94912C0C94010A0C94010A0C94010A62
:100040000C94010A0C94010A0C94010A0C94010A04
:100050000C94010A0C94DC2C0C94010A0C94010AF7
:100060000C94010A0C94010A0C94010A0C94010AE4
:100070000C94010A0C94010A0C94010A0C94010AD4
:100080000C94010A0C94010A0C94010A0C94010AC4
:100090000C94010A0C94010A0C94010A0C94010AB4
:1000A0000C94010A0C94010A0C94010A0101390014
:1000B0000102E001014B0103E0000102E10102E263
:1000C0000101490103E20103E1000102E00102E252
:1000D00001014D0103E20103E0000102E00102E23F
:1000E00001014C0103E20103E0000102E301012BE5
:1000F0000103E3000102E10102E3730103E30103F1
:10010000E1000102E36C0103E3000102E372010379
:10011000E300290014001A00080015001700310040
:1001200052002A00130012000C0018001C002D00C1
:10013000A9003A00A90000004100E10004001600F7
:10014000070009000A002F0028004C742E000F0041
:100150000E000D000B003000A8003B00AA000000BC
:10016000420000001D001B000600190005003600BB
:10017000500000004F005200330010001100370003
:10018000B6003C00A8000000430000000000175C1F
:10019000E20038612C4A00005100000000005100CC
:1001A0005000347128610000AA003D0000000000EA
:1001B0004400000000000000000000002B4B000085
:1001C0004F00000000000000000000004964000033
:1001D000AE003E003F00400045000000000000006F
:1001E000000000000000000000000000000000000F
:1001F00000000000000000000000000000000000FF
:1002000000000000000000000000000000000000EE
:1002100000000000000000000000000000000000DE
:1008E00000003D041E001F002000210022002A00FD
:1008F000B30001002200210020001F001E000100A3
:1009000001003A00A900000041000100230024007A
:100910002500260027004C000F08010027002600B4
:10092000250024002300010001003B00AA00000074
:1009300042000000010001000100360037002D00D8
:10094000010000004D004B000100010035000100D6
:1009500001003C00A800000043000000000001006E
:1009600001000100010000000100000000004E0035
:100970004A0001000100000001003D0000000000ED
:100980004400000000000000000000000100000022
:100990000100000000000000000000000100000055
:1009A00001003E003F00400045004B003A003B0084
:1009B0003C003D003E004B01C75C4A004300420042
:1009C000410040003F000100CB5C3A00A90000005C
:1009D00041004E003F00400041004200430028001B
:1009E000D75C4D00010001000100450044000100FA
:1009F000C45C3B00AA0000004200000001000100AE
:100A00000100440045003A04CA5C000001000100F6
:100A10000100010001003B04CF5C3C00A800000085
:100A2000430000000000010001000100010000007F
:100A3000C85C00000000010001000100010000008E
:100A4000CC5C3D00000000004400000000000000FD
:100A50000000000001000000C95C00000000000070
:100A60000000000001000000C55C3E003F004000A7
:100A7000450000000000000000002A2B28000000B4
:100A8000000000000000000000000000002900003D
:100A900000002C1E3420212224342627252E362D1A
:100AA0003738271E1F202122232425263333362EB4
:100AB00037381F0405060708090A0B0C0D0E0F1026
:100AC0001112131415161718191A1B1C1D2F31306B
:100AD000232D350405060708090A0B0C0D0E0F100F
:100AE0001112131415161718191A1B1C1D2F31304B
:100AF000354C000000000000000000000000000075
:100B00000000000000007E0F00D4FFFFFFC70000C0
:100B1000007832190A00047F3F1F643214643214D3
:100B2000783C1E1E140A052223252628292A2C2D4E
:100B30002F3032333536383A3B3D3E40424345470D
:100B4000494A4C4E5051535557595A5C5E60626445
:100B50006668696B6D6F71737577797B7D7F818353
:100B60008587898A8C8E90929496989A9C9E9FA154
:100B7000A3A5A7A8AAACAEAFB1B3B4B6B8B9BBBC75
:100B8000BEBFC1C2C3C5C6C7C9CACBCCCDCED0D1EA
:100B9000D2D2D3D4D5D6D7D7D8D9D9DADADBDBDBE2
:100BA000DCDCDCDCDCDDDDDDDDDCDCDCDCDCDBDB83
:100BB000DBDADAD9D9D8D7D7D6D5D4D3D2D2D1D0D7
:100BC000CECDCCCBCAC9C7C6C5C3C2C1BFBEBCBBD4
:100BD000B9B8B6B4B3B1AFAEACAAA8A7A5A3A19F4C
:100BE0009E9C9A98969492908E8C8A898785838110
:100BF0007F7D7B79777573716F6D6B6968666462F1
:100C0000605E5C5A5957555351504E4C4A494745BE
:100C10004342403E3D3B3A3836353332302F2D2C5F
:100C20002A292826252322FFAA7F554000010101F9
:100C30000101010101010202020202020202020399
:100C40000303030303030304040404040404050569
:100C5000050505060606060607070707070808082C
:100C600008090909090A0A0A0B0B0B0C0C0C0D0DDB
:100C70000D0E0E0E0F0F0F10101111111212131373
:100C80001414151516161717181819191A1A1B1BEC
:100C90001C1D1D1E1E1F2020212222232424252648
:100CA00026272829292A2B2C2D2D2E2F3031323280
:100CB000333435363738393A3B3C3D3E3F4041428C
:100CC000434445464748494A4C4D4E4F5051535472
:100CD000555658595A5B5D5E5F6162646566686926
:100CE0006B6C6D6F7072737577787A7B7D7E8082A6
:100CF000838587888A8C8E8F91939596989A9C9EEF
:100D0000A0A2A3A5A7A9ABADAFB1B3B5B7BABCBEFE
:100D1000C0C2C4C6C9CBCDCFD1D4D6D8DBDDDFE2CB
:100D2000E4E7E9EBEEF0F3F5F8FAFDFF00AE00AF13
:100D300000DA1281FFD9F1DB20A4A62EAF00A0C0FB
:100D400000A1C800AED580A83FD300408D1420007C
:100D50000000000000003E5B4F5B3E003E6B4F6BAF
:100D60003E001C3E7C3E1C00183C7E3C18001C577C
:100D70007D571C001C5E7F5E1C0000183C180000A4
:100D8000FFE7C3E7FF00001824180000FFE7DBE7D8
:100D9000FF0030483A060E00262979292600407FB8
:100DA00005050700407F05253F005A3CE73C5A00F7
:100DB0007F3E1C1C0800081C1C3E7F0014227F2262
:100DC00014005F5F005F5F0006097F017F0000661F
:100DD00089956A0060606060600094A2FFA2940040
:100DE00008047E04080010207E20100008082A1C39
:100DF0000800081C2A0808001E10101010000C1E05
:100E00000C1E0C0030383E383000060E3E0E060038
:100E100000000000000000005F0000000007000765
:100E20000000147F147F1400242A7F2A1200231349
:100E3000086462003649562050000008070300008D
:100E4000001C224100000041221C00002A1C7F1CC3
:100E50002A0008083E0808000080703000000808DA
:100E6000080808000000606000002010080402006C
:100E70003E5149453E0000427F40000072494949C9
:100E800046002141494D33001814127F10002745B8
:100E9000454539003C4A49493100412111090700C3
:100EA000364949493600464949291E0000001400C8
:100EB0000000004034000000000814224100141417
:100EC00014141400004122140800020159090600FC
:100ED0003E415D594E007C1211127C007F49494908
:100EE00036003E41414122007F4141413E007F4961
:100EF000494941007F09090901003E414151730000
:100F00007F0808087F0000417F4100002040413FEA
:100F100001007F08142241007F40404040007F02D2
:100F20001C027F007F0408107F003E4141413E00CB
:100F30007F09090906003E4151215E007F091929F8
:100F4000460026494949320003017F0103003F4022
:100F500040403F001F2040201F003F4038403F00DE
:100F60006314081463000304780403006159494DB5
:100F70004300007F4141410002040810200000416D
:100F800041417F0004020102040040404040400013
:100F90000003070800002054547840007F28444490
:100FA0003800384444442800384444287F003854EA
:100FB0005454180000087E0902001824A49C7800EC
:100FC0007F080404780000447D4000002040403D3C
:100FD00000007F102844000000417F4000007C0496
:100FE000780478007C0804047800384444443800CD
:100FF0007C1824241800182424187C007C0804047D
:10100000080048545454240004043F4424003C4045
:1010100040207C001C2040201C003C4030403C0014
:101020004428102844004C9090907C004464544C18
:101030004400000836410000000077000000004135
:10104000360800000201020402003C2623263C0070
:10105000000000000080808040404040E000000030
:101060000000003070600080C0C0EEEEC0C08000A4
:1010700060F03000003070600080C0C0EEEEC0C094
:10108000800060703000003070600080C0C0EEEE04
:10109000C0C080006070300000000000F8FC0E0648
:1010A0000606060EFCF800000000000000000080AC
:1010B000402090C864329A5A594D2D2D213F00008E
:1010C000000000FF01FDFDFDFD01FF00000000002C
:1010D000FF01FDFDFDFD01FF0000000000FF01FD1F
:1010E000FDFDFD01FF00000000003F212D2D4D59A9
:1010F0005A9A3264C890204080000000000000002E
:1011000000000000000000000000000000000000DF
:101110000000000000FF04040282C2C2FF000000C1
:1011200000000C0C001C7FFFFF80B6B6B6C9FF7F25
:101130001C000C0C0C0C001C7FFFFF80F7F780FFDD
:10114000FF7F1C000C0C0C0C001C7FFFFFD9B6B6F7
:10115000B6CDFF7F1C000C0C0000FFFFFFFFFFFF60
:10116000FFFFFFFFFFFFFFFF00000000C03887F018
:101170007E0FE11C020100000000000000000000E2
:10118000000000FF00FFFFFFFF00FF000000000065
:10119000FF00FFFFFFFF00FF0000000000FF00FF57
:1011A000FFFFFF00FF000000000000000000000043
:1011B000000001021CE10F7EF08738C00000000033
:1011C000000000000000000000000000000000001F
:1011D00000000207070300000000010100000000FA
:1011E0000000000C0E06000001013B3B0101000065
:1011F00000060E0C0C0E0600000001013B3B010135
:10120000000000060E0C0C0E0600000001013B3B26
:101210000101000000060E0C78848400F0282428C8
:10122000F000FC24243C009C94F40000FF80BFBF2D
:10123000B0B7B4B4B4B4B4B4B4B4B4B484FC0000BF
:10124000000000FF80BFBFBFBF80FF0000000000A4
:10125000FF80BFBFBFBF80FF0000000000FF80BF56
:10126000BFBFBF80FF0000000000FC84B4B4B4B472
:10127000B4B4B4B4B4B4B7B0BFBF80FF00000000D2
:10128000000000000000000000000000000000005E
:101290000C034900490049004300430000001003CB
:1012A0006B0062006A0075006E006B007900000040
:1012B0000403090409023B00020100A0FA0904002A
:1012C0000001030101000921110100012240000772
:1012D00005810308000A0904010001030000000958
:1012E00021110100012232000705820320000A12A9
:1012F00001100100000008EDFE00000100010200E5
:101300000105010980A101850319012AB700150112
:1013100026B700950175108100C0050C0901A101D7
:10132000850419012AA002150126A0029501751055
:101330008100C005010906A101050719E029E7158B
:101340000025019508750181029501750881010547
:1013500007190029FF150026FF0095067508810072
:101360000508190129059505750191029501750377
:101370009101C00011241FBECFEFDAE0DEBFCDBF68
:1013800004B603FE27C08091B6079091B707A091DD
:10139000B807B091B9078730904BA740B04BD1F454
:1013A0001092B6071092B7071092B8071092B907BB
:1013B00014BE84B7877F84BF0FB6F894A895809138
:1013C0006000886180936000109260000FBEE0E0D2
:1013D000F8E3099511E0A0E0B1E0E2EFFAE602C01F
:1013E00005900D92A83CB107D9F727E0A8ECB1E031
:1013F00001C01D92A63BB207E1F70E94882E0C9413
:101400003F350C94000008950C94030A0C944F0D82
:1014100094E0899FF0011124E853FE4F60817181AF
:101420008281938108950895089508950E949D0CE6
:10143000ECEDF1E0A8ECB1E0119211921192119251
:101440001D921D921D921D9281E0E03FF807A1F7C9
:1014500085E00E9491130C944611BF92CF92DF92C7
:10146000EF92FF920F931F93CF93DF93CCEDD1E0D8
:1014700010E000E0612F8AE40E94D30C63E18AE46B
:101480000E943D0CC82E0E94DD0CD12CF12CE12CC9
:10149000892B71F02FEF83ED90E321508040904035
:1014A000E1F700C000000E949D0CC12CD12C7601F8
:1014B000FE2CED2CDC2CCC24612F8EE40E94D30C6E
:1014C00063E18EE40E943D0CB82E0E94DD0C892B56
:1014D00009F44FC02FEF83ED90E3215080409040FE
:1014E000E1F700C000000E949D0CFE2CED2CDC2CCE
:1014F000CC24612F80E40E94D30C63E180E40E943D
:101500003D0CB82E0E94DD0C892BA9F12FEF83ED45
:1015100090E3215080409040E1F700C000000E941D
:101520009D0C88819981AA81BB818C159D05AE0592
:10153000BF0529F0C882D982EA82FB8201E01F5FE1
:101540002496153009F096CF202F45E068EC71E025
:101550008CED91E00E9492130E944E11802FDF913A
:10156000CF911F910F91FF90EF90DF90CF90BF90A0
:101570000895CB28BACFCB28D4CF1092B9008CE0F5
:101580008093B8000895EF92FF920F931F93CF932B
:10159000DF93182FEB011092BC0084EA8093BC000B
:1015A0000E94C12C7C018091BC0087FF27C08091E4
:1015B000B900887F883029F08091B900887F803118
:1015C000D9F51093BB0084E88093BC000E94C12C25
:1015D0008C018091BC0087FF24C02091B900287F36
:1015E00090E080E02831B1F081E090E0203411F407
:1015F00090E080E09195819591090CC0CF3FDC0788
:1016000091F20E94C12C8E199F098C179D0758F2E8
:101610008EEF9FEFDF91CF911F910F91FF90EF9091
:101620000895CF3FDC07A9F20E94C12C801B910BCB
:101630008C179D0770F2ECCF8FEF9FEFEBCF0F93DE
:101640001F93CF93DF93EB018093BB0084E88093DB
:10165000BC000E94C12C8C018091BC0087FF11C08E
:101660002091B900287F81E090E0283211F490E0C9
:1016700080E0919581959109DF91CF911F910F9114
:101680000895CF3FDC0741F30E94C12C801B910BD2
:101690008C179D0708F38EEF9FEFEECF0F931F93EC
:1016A000CF93DF93EC0184EC8093BC000E94C12CAB
:1016B0008C018091BC0087FF08C08091BB0090E046
:1016C000DF91CF911F910F910895CF3FDC0789F3F0
:1016D0000E94C12C801B910B8C179D0750F38EEF3D
:1016E0009FEFEECF0F931F93CF93DF93EC0184E82E
:1016F0008093BC000E94C12C8C018091BC0087FFAC
:1017000008C08091BB0090E0DF91CF911F910F91B5
:101710000895CF3FDC0789F30E94C12C801B910BF9
:101720008C179D0750F38EEF9FEFEECFCF92DF9295
:10173000EF92FF920F931F93CF93DF936B018A0178
:101740007901B9010E94C30AE6010C0D1D1DC017E5
:10175000D10761F424E92093BC00DF91CF911F9160
:101760000F91FF90EF90DF90CF90089597FDF2CF0B
:10177000B70189910E941F0BEACFCF92DF92EF92BF
:10178000FF920F931F93CF93DF93C62F6A017901C6
:10179000B8010E94C30A97FD0CC0B8018C2F0E94AB
:1017A0001F0BE601EC0CFD1CCE15DF0511F097FFB9
:1017B0000CC024E92093BC00DF91CF911F910F91C1
:1017C000FF90EF90DF90CF900895B80189910E942B
:1017D0001F0BEACFCF92DF92EF92FF920F931F93EE
:1017E000CF93DF93F82EE62EEA016901B8010E943B
:1017F000C30A97FD15C0B8018E2D0E941F0B97FDDF
:101800000FC0B8018F2D81600E94C30AF12CE12C1A
:1018100021E0C21AD108EC14FD0400F597FF11C0B5
:1018200024E92093BC001816190614F490E080E017
:10183000DF91CF911F910F91FF90EF90DF90CF90AC
:101840000895C8010E944E0B97FD04C0FE01EE0DE5
:10185000FF1D80832FEFE21AF20ADDCF97FDE0CF64
:10186000C8010E94720B97FDDBCFCC0DDD1D888374
:10187000D7CF84E98093BC000895EF92FF920F9335
:101880001F93CF93DF930F92CDB7DEB7F82EE62EDE
:10189000198268EE73E00E94C30A9093F20180936C
:1018A000F101892B79F408EE13E021E030E0AE017C
:1018B0004F5F5F4F6E2D8F2D0E94EA0B9093F201C8
:1018C0008093F1010E94390C898180950F90DF91FE
:1018D000CF911F910F91FF90EF900895EF92FF929B
:1018E0000F931F93CF93DF930F92CDB7DEB7F82EF0
:1018F000E62E498368EE73E00E94C30A9093F201DA
:101900008093F101892B79F408EE13E021E030E0B7
:10191000AE014F5F5F4F6E2D8F2D0E94BD0B9093D8
:10192000F2018093F1010E94390C0F90DF91CF9169
:101930001F910F91FF90EF9008958091F001811118
:1019400005C00E94BD0A81E08093F00140E060E0A4
:1019500080E40E946E0C4FEF6CE080E40E946E0CFD
:101960004FEF6DE080E40E946E0C40E060E08EE49A
:101970000E946E0C4FEF6CE08EE40E946E0C4FEFF5
:101980006DE08EE40E946E0C40E060E08AE40E940C
:101990006E0C4FEF6CE08AE40E946E0C4FEF6DE02E
:1019A0008AE40C946E0C41E050E001C0440F6A954B
:1019B000EAF7409562E10C946E0C8091F1019091F0
:1019C000F20108951F93CF93DF930E94C12C90934F
:1019D000F5018093F401DDE91DEF0E94581E869504
:1019E000C82FC10F0E94501E86956C2F86500E94F2
:1019F000451CC2EFCD0F60E08C2F0E947B1CCF5F97
:101A0000CD13F9CF1F5FD0E2DC0FDD3F31F7DF915F
:101A1000CF911F9108951F93CF93DF93D0E0C0E043
:101A20000E94501E182F0E94581E189FC00111249A
:101A3000C817D90724F0DF91CF911F91089560E076
:101A400080E00E947B1C2196EBCF0F931F93CF93D6
:101A5000DF93C82F162F042F0E94C12C9093F501FD
:101A60008093F401D0E0602F6D0F812F0E94451C00
:101A700060E08C2F0E947B1C60E081E08C0F0E9454
:101A80007B1C60E082E08C0F0E947B1CDF5FC05EED
:101A9000D33049F7DF91CF911F910F910895809135
:101AA000B502882309F49DC18091B3029091B402DC
:101AB0000E94CD2C833C914008F493C11092B50252
:101AC0000E9479208091A9029091AA024A97F1F48C
:101AD0008091AB029091AC022091AD023091AE02A8
:101AE000822B932B2091AF023091B002822B932B4B
:101AF0002091B1023091B202822B932B892B71F588
:101B000083EE0E94672283EE0E94AD228091A9029B
:101B10009091AA020597D9F48091AB029091AC0202
:101B20002091AD023091AE02822B932B2091AF0217
:101B30003091B002822B932B2091B1023091B202EE
:101B4000822B932B892B09F093C00E945111809115
:101B5000A9029091AA024A9709F08AC08091AB022B
:101B60009091AC02459709F465C08091AB029091C9
:101B7000AC020F97E9F48091AD029091AE022091F2
:101B8000AF023091B002822B932B2091B1023091A1
:101B9000B202822B932B892B71F582E091E00E9497
:101BA00043118091A9029091AA024A9709F060C05E
:101BB0008091AB029091AC024697E9F48091AD021E
:101BC0009091AE022091AF023091B002822B932B04
:101BD0002091B1023091B202822B932B892B09F014
:101BE00072C084EF90E00E9443118091A90290910D
:101BF000AA024A97E9F58091AB029091AC0247970F
:101C000009F061C08091AD029091AE022091AF02C7
:101C10003091B002822B932B2091B1023091B2020D
:101C2000822B932B892B09F04EC08AEE90E00E9404
:101C300043111EC08091AD029091AE022091AF027F
:101C40003091B002822B932B2091B1023091B202DD
:101C5000822B932B892B09F0ABCF8AE091E00E9475
:101C600043118091A9029091AA024A9709F47DCF6D
:101C70008091A9029091AA02069729F58091AB0262
:101C80009091AC02049709F049C08091AD02909107
:101C9000AE02079709F08CC08091AF029091B0021C
:101CA0002091B1023091B202822B932B892B09F043
:101CB0007FC08AED90E00E9443118091A90290912B
:101CC000AA02069721F18091A9029091AA02049795
:101CD00029F58091AB029091AC022091AD02309138
:101CE000AE02822B932B2091AF023091B002822B57
:101CF000932B2091B1023091B202822B932B892B2E
:101D000009F06FC08AEB90E00E94431107C08091F8
:101D1000AB029091AC02049709F44AC08091A902E9
:101D20009091AA024497E9F48091AB029091AC02A1
:101D30002091AD023091AE02822B932B2091AF0205
:101D40003091B002822B932B2091B1023091B202DC
:101D5000822B932B892B09F044C080EB90E00E94EA
:101D600043118091A9029091AA024697D1F58091E2
:101D7000AB029091AC022091AD023091AE02822B69
:101D8000932B2091AF023091B002822B932B2091A4
:101D9000B1023091B202822B932B892B11F58CEA80
:101DA00090E00E94431140E060E08CE80C94250D27
:101DB0008091AD029091AE02089709F0AFCF80916B
:101DC000AF029091B0022091B1023091B202822B09
:101DD000932B892B09F0A2CF8AEC90E00E9443114B
:101DE00072CF0895CF93DF93D82F0E94581EC82F2B
:101DF0000E94501E4C2F4695415086956FEF680FFC
:101E00008D2FDF91CF910C94250DCF93C62F0E947B
:101E1000F20E60E080E00E947B1C60E08C2FCF918E
:101E20000C947B1CCF93883C2CE59207C1F160F4A5
:101E30008A3A910529F1873CFCE59F0759F1893AD7
:101E4000910589F0C1E044C08A3C2CE5920761F11C
:101E500040F18B3CFCE59F0749F169E18C3C9C45D6
:101E600089F783E819C0FB01C2818091F301CC237B
:101E7000F9F0811103C081E08093F301C0E028C034
:101E8000FB01C2818091F301CC2329F18111F6CFAE
:101E90008FEFF2CF68E186E80E94050FD3CF69E1AA
:101EA000FACF68E189E8F8CF69E1FCCF68E1D9CFE2
:101EB000813071F41092F30189EA90E00E941510CC
:101EC00089EA90E00E942A1068E180E80E94050FEC
:101ED0008C2FCF9108958F3FD9F71092F3018AEAA2
:101EE00090E00E9415108AEA90E00E942A1069E1B1
:101EF000ECCF1F93CF93DF93D82F162FC0E0612F25
:101F00006C0F8D2F0E94451C60E080E00E947B1CBE
:101F100060E080E00E947B1C60E080E00E947B1C0F
:101F2000CF5FC33061F7DF91CF911F9108950E9479
:101F3000EC2081FD04C060E080E00E94790F809178
:101F4000F4019091F5010E94CD2C853C994058F008
:101F50000E940B0D0E94EC2081FF05C040E060E074
:101F60008CE80C94250D08950F93CF938091600316
:101F70008160809360030E94351E00E120E040E014
:101F800060E080E00E948616C0E00C2F20E04FEF5A
:101F90006FEF8FEF0E9486162FEF84E39CE02150B5
:101FA00080409040E1F700C00000CF5FC03169F78A
:101FB0000E94411ACF910F910C94E20CCF93DF93C2
:101FC0009C013A9521153F4168F5EC01CC27D17071
:101FD000DC01AA27B270AC01442754709C0122276F
:101FE000387094FF11C080E1CD2B09F480E0AB2B59
:101FF00009F08062452B09F08064232B09F080688A
:10200000FB01DF91CF91099481E0CD2B09F480E0B1
:10201000AB2B09F08260452B09F08460232B81F300
:102020008860EECFDF91CF910895CF93DF93EC01DD
:10203000805E9109089720F065E375E2209711F41E
:1020400060EF72E2CE010E94DE0F8C2FDF91CF9104
:102050000C946722CF93DF93EC010E94AD22CE0156
:10206000805E9109089720F06CE375E2209711F4E7
:1020700067EF72E2CE01DF91CF910C94DE0F81E029
:1020800008950C94120F08950C9443101F93CF934E
:10209000DF9300D000D00F92CDB7DEB749835A83CB
:1020A0006B833091D10289819A8131111DC06623E1
:1020B000B9F02223A9F00E94032A182F682F8981E2
:1020C0009A810E94AF2969817A81812F0F900F90A8
:1020D0000F900F900F90DF91CF911F910C94B7113B
:1020E0000E94DB29182FEFCF0E94032A69817A8191
:1020F000EDCFFC01262F4081518162817381848163
:102100000C944610CF93DF93EC0160E00E947910AD
:10211000BE01DF91CF910C944410FF920F931F9357
:10212000CF93DF93E82FF0E0EE58F54FF490C82FEF
:10213000C695C695C695D0E0FE01EE5FF44F0491BA
:10214000877010E0082E02C0159507950A94E2F7F3
:1021500001701127CE50D54FFE01C491D0E002C0CE
:10216000D595C7958A95E2F7C170DD270115110550
:1021700019F081EE0E946722209719F086EE0E94E6
:1021800067228F2D0E94D522CD2B19F086EE0E945A
:10219000AD22012B41F081EEDF91CF911F910F9184
:1021A000FF900C94AD22DF91CF911F910F91FF9082
:1021B0000895EF92FF920F931F93CF93DF938C01BB
:1021C000F62E8AE0E82EF8018491882309F454C0A1
:1021D000813009F04DC0E8012196FE0184918130E3
:1021E00091F42196FE0184910E94D5228E010F5F09
:1021F0001F4F8F2D815038F3EFE9FFE03197F1F752
:1022000000C00000F7CF823039F4E8012296FE01C9
:1022100084910E946722EACF833039F4E801229644
:10222000FE0184910E94AD22E1CF8430F9F6E801ED
:102230002296FE01249190E080E0FE013196205329
:10224000330B2A30310548F0019780F2EFE9FFE0C7
:102250003197F1F700C00000F7CFE89EA001E99E9A
:10226000500D1124C901840F951F2491EF01E5CF72
:102270000E948D10E801BACFDF91CF911F910F918D
:10228000FF90EF90089560E00C94D9100E943A2BD3
:10229000811102C00E94DE2B0C94040A0C94060AE1
:1022A00008950E9455250E9450112FEF84E39CE071
:1022B000215080409040E1F700C000000C94002DB8
:1022C0000F931F93CF93DF93EC0161E00E9479108D
:1022D0008C01BE010E944110882389F1BE01C80112
:1022E0000E949320882359F1BE01C8010E94D91E83
:1022F000882329F1BE01C8010E942B1F8823F9F011
:10230000BE01C8010E944E208823C9F0BE01C80149
:102310000E942B1B882399F08A81882339F00115AC
:102320008CE5180751F0003E1C4579F0CE01DF9195
:10233000CF911F910F910C943F100E94511180E09A
:10234000DF91CF911F910F9108950E94DE2BF7CF5F
:1023500008950C94A81181E008950C94AB11CF93CB
:10236000C82F0E94A9118C2FCF910C94AD11972FDB
:1023700070E024E1929F600D711D1124FB0194E631
:10238000899FE00DF11D1124EE0FFF1FEE5EFE4F41
:10239000859194910895CF93DF930E94B7110E9485
:1023A000B712EC01811522E59207E8F5811531E5B8
:1023B000930708F0ACC0883E910510F5803E91056A
:1023C00070F5883A910570F4853A910508F078C067
:1023D0008130910521F1009711F1049700F5D0E0CB
:1023E000C0E01DC08F3B9105D0F7C85AD0E0CC0F9C
:1023F000DD1FC55DDE4F0990D881C02DD4640FC0AC
:10240000811540E5940708F066C0C11580E4D8073F
:1024100008F05EC0CE019A9581159F4100F7CE016C
:10242000DF91CF910895811536E5930718F5811551
:1024300045E5940708F083C0C11584E5D80708F086
:1024400079C09C2F969596959E0123703327C115D0
:10245000D34508F461C0C1E0D0E002C0CC0FDD1F5D
:102460002A95E2F730E2939FC0011124C82BD92BA3
:10247000DA68D5CFC1158AE5D80778F4C11599E592
:10248000D90708F066C0C11528E5D20708F4A7CF20
:10249000DC2FCC27C06FD06AC2CFCE0190568115F9
:1024A000904208F09CCF8D2F8F710E944E1390E0C8
:1024B000982F882788279F719C012C2BE90147C002
:1024C000C55AD0E0C75ADE4FC881D0E0D064A7CF4C
:1024D000DF70D06AA4CFE4E096958795EA95E1F79E
:1024E00083702C2F26952695237040E2249F90011F
:1024F0001124382B8C2F8370C1E0D0E002C0CC0FA8
:10250000DD1F8A95E2F7C22BD32BDC6888CFD82F4A
:10251000CC27C16FD06A83CFC1E0D0E002C0CC0F1E
:10252000DD1F2A95E2F720E2929FC0011124C82BFB
:10253000D92BEBCFDC2FCC27C46FD06A70CF0E9491
:102540004E13C82FD0E0DC2FCC27CC27DF71D06210
:1025500066CF8C2F8F700E944E1334E0D695C795AE
:102560003A95E1F7CF709C2FEC01D06958CF8238B3
:102570009105B1F1B0F48133910509F475C048F4C7
:102580008932910509F469C08A32910509F473C052
:1025900008958533910509F459C08933910501F1F6
:1025A0000895833E9105A9F138F4803E9105F9F034
:1025B000823E910549F10895863E9105A9F1873E35
:1025C0009105C9F1843E910519F52091A80721FFD5
:1025D0001FC08091A70784FD14C087EE90E0089586
:1025E0002091A7072370A1F080EE90E0089520913C
:1025F000A70720FD47C03091A80730FF09C024FF7E
:1026000044C090E080E004C02091A70722FDF7CFEE
:1026100008952091A70722FD3BC03091A80730FD07
:10262000E3CF24FFF5CFEDCF2091A70723FFF0CF15
:1026300024FDE7CFD2CF2091A70723FD2CC03091F6
:10264000A80731FFEECF84EE90E008952091A70710
:1026500025FFDECF89E290E008952091A70725FFAE
:10266000D7CF85E390E008952091A70726FFD0CF2C
:102670008AE290E008952091A70726FFC9CF81E361
:1026800090E0089589E390E0089583EE90E0089546
:1026900082EE90E0089586EE90E008959091A7076D
:1026A00092FF06C0282F28712830F9F4877F8460B4
:1026B00093FF06C0282F28712831F1F4877E8461AA
:1026C0002091A80720FF06C0382F38713830D9F480
:1026D000877F816021FF06C0282F28712831D1F41F
:1026E000877E816194FD877E0895282F2471243090
:1026F000F9F68B7F8860DCCF282F2471243101F715
:102700008B7E8861DDCF382F3171313019F78E7FA4
:102710008860E0CF282F2171213121F78E7E8861DA
:10272000E1CF0895FF920F931F93CF93DF93F82E7D
:10273000D92F8B01C42F222349F081E08093F80127
:102740000E94C12C9093F7018093F6018091F801CB
:10275000882399F08091F6019091F7010E94CD2C89
:102760000B9758F0EF2DFD2FD80190E080E0D0E0DE
:102770008C179D0744F01092F801DF91CF911F91C3
:102780000F91FF90089501911191219131910D9335
:102790001D932D933D930196EBCFEF92FF920F93F4
:1027A0001F93CF93DF93EB01E82FD11110C0442387
:1027B00021F0F0E0E45DF34FE4916E2F7E2F8E2F39
:1027C000DF91CF911F910F91FF90EF9008950D2F02
:1027D00010E0282F30E0442329F0245D334FF90125
:1027E000249130E0F6E0CF9FC0011124EFEFF0E03C
:1027F000BF010E94D833AB018C2F90E0880F991F46
:10280000A5E5A49FB001A59F700D1124861B970B11
:10281000982F990F980FBF01601B710B629FD00119
:10282000639FB00D729FB00D11248B2F9D9FB0013F
:102830001124672F7727EF01C61BD70BBE01629FBC
:10284000E001639FD00D729FD00D11247F01E91A22
:10285000F108E09EB001E19E700DF09E700D112414
:10286000672F7727E61BF70BE29F8001E39F100D90
:10287000F29F100D1124E12F722F4230510599F073
:1028800048F44115510569F04130510581F0EB2FB5
:102890008D2F07C04430510569F080F04630510556
:1028A000B1F76E2F8DCFE22F7B2F812FFACFE22F42
:1028B0007D2FF7CFEB2F822F712FF3CF7B2F822F1E
:1028C000ED2FEFCF41E00C94CD1308950C946214DA
:1028D000CF93DF93762FE901682F842F0E9466142F
:1028E000798368838A83DF91CF91089580916C0307
:1028F000982F9E7F29F48170826080936C030895E5
:102900008635E8F381708465F8CF88E090E00C9418
:10291000E034CF92DF92EF92FF926B017C010E9434
:102920007614B701A60188E090E0FF90EF90DF9069
:10293000CF900C94FE34ECE6F3E083E080831182C8
:102940008FEF82838383148260817181828193817E
:102950000C94891480916C0380FF02C086950895C1
:1029600080E0089590917003933018F49F5F9093E6
:102970007003882351F060916C0370916D03809116
:102980006E0390916F030C948914089581E00C9468
:10299000B21490917003992319F0915090937003A1
:1029A000882351F060916C0370916D0380916E03E8
:1029B00090916F030C948914089581E00C94C914CC
:1029C00070E00C949B1B6091080180916C0380FF68
:1029D0000AC08091070123E0829FC00111248F5813
:1029E0009C4F0C94E0148091090190910A0123E01E
:1029F000829FF0011124EF58FC4F891750F7118284
:102A0000108212828F5F3396F8CF90916C0390FF03
:102A100014C09091090120910A0133E0939FF001C5
:102A20001124EF58FC4F921710F00C94E31481839B
:102A3000608342839F5F3396F6CF0895CF93DF93F1
:102A400000D00F92CDB7DEB790916C0390FF0AC013
:102A50009E012F5F3F4F0E9468144B8169818A81DC
:102A60000E9405150F900F900F90DF91CF91089560
:102A7000CF93DF93EC01EC81F0E0E95DF44F4491FA
:102A8000ECE6F3E0628181810E941E158C818F5FEC
:102A90008C83DF91CF910895CF93DF93EC01ECE627
:102AA000F3E0438162818C810E941E158C818F5FCF
:102AB0008C83DF91CF9108950F931F93CF93DF9372
:102AC00000D00F92CDB7DEB78C018091F901811152
:102AD0000AC09E012F5F3F4F4FEF6FEF0E946814B7
:102AE0008A818093F901F8016481613069F08091F5
:102AF000F90140E0662361F040E0623011F440915A
:102B0000F90180E060E004C06091F90140E080E0FC
:102B10000E940515F801848190E0019663E070E061
:102B20000E94EC3384830F900F900F90DF91CF9130
:102B30001F910F910895AF92BF92CF92DF92EF92C3
:102B4000FF920F931F93CF93DF9300D00F92CDB7D7
:102B5000DEB7182FF62E042FE22E90916C0390FF13
:102B600029C0E92FE695AE2FB0E0A45ABE4F8C9154
:102B7000809355029E7F923059F59E012F5F3F4F03
:102B8000812F0E9468144B8169818A810E940515FA
:102B900010936D03F0926E0300936F03EE2051F0DB
:102BA00060916C0370916D0380916E0390916F033F
:102BB0000E9489140F900F900F90DF91CF911F9179
:102BC0000F91FF90EF90DF90CF90BF90AF9008955E
:102BD000823019F400916F03DBCF863019F4109125
:102BE0006D03D6CF8930D9F3893191F6E9518E2F13
:102BF0008170D82EE695F0E0E95DF34FA590B49092
:102C0000C12CBB2460910B01C61618F00E94E3147E
:102C1000BFCF2C2D30E0A29EC001A39E900DB29E8E
:102C2000900D112470E00E94D833812FD11013C071
:102C3000860F40910901420F532F511D9A01220F17
:102C4000331F240F351F2F583C4F402F6F2D0E94EC
:102C50006814C394D7CF861BECCFECE6F3E09181E8
:102C6000282F438162818AE0890F0C949B1581E0B3
:102C70000C942D16ECE6F3E09181282F43816281BC
:102C800086EF890F0C949B1581E00C943A16ECE6C4
:102C9000F3E062812FE0620F08F46FEF282F438189
:102CA00081810C949B1581E00C944716ECE6F3E0CF
:102CB00062812FE0621B08F460E0282F438181814C
:102CC0000C949B1581E00C945616ECE6F3E04381DE
:102CD0002FE0420F08F44FEF282F628181810C947E
:102CE0009B1581E00C946516ECE6F3E043812FE040
:102CF000421B08F440E0282F628181810C949B15CF
:102D000081E00C94741620E00C949B150F93909125
:102D10006C0390FF19C02017B8F40131A8F493E0B8
:102D2000299FF0011124EF58FC4F81836083428377
:102D30002F5F33960213F9CF0E94E3148FE99FE0CF
:102D40000197F1F700C000000F910895EF92FF92F4
:102D50001F93CF93DF93EC0110E0EE24EA94F12C63
:102D600060910B01161770F00E94E3149A818C8118
:102D700090FF27C08F5F8C83DF91CF911F91FF90D1
:102D8000EF90089520910901422F410F5527551FBB
:102D9000CA019A01220F331F280F391F2F583C4FA9
:102DA00070E0C7010E94EC33962F8C8140916F0335
:102DB00060916E03199F800D11240E9468141F5F9B
:102DC000CFCF8150D8CFBF92CF92DF92EF92FF92B8
:102DD0000F931F93CF93DF93FC0182810FEF80FF4E
:102DE00001E010E080910B011817C0F00E94E3147D
:102DF0008091FB01013009F051C0811102C0809126
:102E00000B0181508093FB01DF91CF911F910F91B6
:102E1000FF90EF90DF90CF90BF900895C09109018F
:102E2000C12ED12CCC0DDD2DD11DCE01880F991FC7
:102E3000C80FD91FCF58DC4F198218821A8234E08C
:102E4000E32EF12CB12C8091FB018B0D813104F12B
:102E50008F70082E000C990BC816D90691F480913A
:102E60006F038E9DA0018F9D500D112455954795A0
:102E7000559547959E0160916E0380916D030E9468
:102E80006814B00EF1E0EF1AF108E9F61F5FAACF5F
:102E900087FFDFCF90910B01890FDBCF90E0019688
:102EA00060910B0170E00E94EC33ACCF0F931F9345
:102EB000CF93DF938091090190910A0123E0829FD3
:102EC000F0011124EF58FC4F891740F1C0E0D3E026
:102ED00060910B01C61740F10E94E3142091050197
:102EE0008091FA01820F8093FA0190910601920F6E
:102EF00090930601191654F4082E000C990B40917A
:102F00000B014150550B841795071CF02195209318
:102F10000501DF91CF911F910F91089511821082C9
:102F200012828F5F3396D0CF0C2F10E070E0C80173
:102F30000E94EC3320910901820F482F50E020912C
:102F4000FA01022E000C330B02171307BCF020917C
:102F50000601022E000C330B201731077CF08D9FE9
:102F6000900111242F583C4F40916F0360916E03E4
:102F700080916D030E946814CF5FAACFFA01EE0F13
:102F8000FF1FE40FF51FEF58FC4F118210821282D1
:102F9000F3CF8F929F92AF92BF92CF92DF92EF9238
:102FA000FF920F931F93CF93DF93EC014C81042F7B
:102FB00010E09801D8010E9430349B01AC010E94BE
:102FC00046344B015C01E0E2F0E0E01BF10BA5E5CB
:102FD000B0E0AC019B010E9446346B017C019F0173
:102FE000DF010E9428349B01AC010E9451349B01F7
:102FF000AC01280D391D4A1D5B1DC701B6010E9499
:103000000034F22E822F90E039E23F1560F143E068
:10301000249F9001112435952795122F109500E0DB
:1030200085E5E82EEF1880910B01081758F10E94F2
:10303000E3149C8181E0992319F0903219F48FEF09
:103040008093040180910401890F8C83DF91CF91DB
:103050001F910F91FF90EF90DF90CF90BF90AF90B6
:103060009F908F90089525E530E0B901681B790B9A
:103070009B01220F331F260F371F37FFCCCF2F5F47
:103080003F4FC9CF8E2D01FD8F2D20910901622F59
:10309000600F7727771F9B01220F331F260F371FE3
:1030A0002F583C4F412F60916E030E9468140F5FB0
:1030B000BACF0F931F93CF93DF93EC0110E000E0A2
:1030C00090910B019017110609F06CF40E94E31423
:1030D0008C8190E00196817099278C83DF91CF914C
:1030E0001F910F91089520910901A801420F511DD0
:1030F0009A01220F331F240F351F2F583C4F4C814C
:1031000060916E0380916D0396959017110651F0B2
:103110004CF0442349F040916F030E9468140F5F04
:103120001F4FCECF4423B9F340E0F7CF8F929F9249
:10313000AF92BF92CF92DF92EF92FF920F931F93C5
:10314000CF93DF93FC01B280948081E0848300E020
:1031500015E05BE4A52E88248394EE24EA94F12CF8
:103160007BE4C72ED12C80910B01081770F0DF9102
:10317000CF911F910F91FF90EF90DF90CF90BF9074
:10318000AF909F908F900C94E314C02FD0E01C9FC1
:10319000F0011D9FF00D1124E450FE4F91101CC052
:1031A0001382128220910901CE01820F911D9C0190
:1031B000220F331F280F391F2F583C4F1C9FF0013F
:1031C0001D9FF00D1124E450FE4F428161818081EA
:1031D0000E9468140F5FC7CF2381222379F1215009
:1031E000238334818A2D821B311101C0822F1C9FC1
:1031F000F0011D9FF00D1124E450FE4F90916F03DC
:10320000899FC0011124B6010E94D8336283211125
:1032100004C0332311F01482A38222E02B1510F294
:103220001C9FF0011D9FF00D1124E450FE4F809172
:103230006D03808380916E038183B4CF0E94A53497
:10324000823091400CF0AECF82E08B1530F50E94B9
:10325000A534B7010E94EC331C9FF0011D9FF00DB7
:103260001124E450FE4F808322E02B15C8F40E9405
:10327000A53420916E032695622F70E00E94EC33F6
:10328000280F1C9FF0011D9FF00D1124E450FE4FEC
:1032900021831282A382848285CF80916D03DCCF4B
:1032A00020916E03EECFECE6F3E080818E7F808389
:1032B00060817181828193810E94891410925602EB
:1032C0002FEF80E792E0215080409040E1F700C06E
:1032D00000000C94E314ECE6F3E080818E7F8083A1
:1032E000109256022FEF80E792E0215080409040EC
:1032F000E1F700C000000C94E31410925602809194
:10330000530281110AC081E08093530280916C03C3
:103310008170809352020C946B19089560916C0334
:10332000669570E04BE050E08CE091E00E94BE3486
:10333000892B19F481E0809356020E94C12C90934E
:103340004D0280934C02089590916C0390FF35C01C
:103350009170811128C0926090936C03662351F0A4
:1033600060916C0370916D0380916E0390916F0377
:103370000E94891460916C03669570E04BE050E008
:103380008CE091E00E94BE34892BA1F0109256028D
:1033900081E080934F0240916F0360916E038091B2
:1033A0006D030C9483168B3210F09465D5CF880F83
:1033B000982BD2CF0E948E19EBCF0895682F909151
:1033C0006C03969581E0890F8B3208F081E00C94B4
:1033D000A41981E00C94DE19682F90916C039695E6
:1033E0008FEF890F09F48AE20C94A41981E00C9400
:1033F000EC1961E00C94A419ECE6F3E080818160A3
:10340000808386950C94F91980916C0380FD0C944F
:1034100053190C94FC1960E00C94A4198091540287
:1034200081112EC00E943A2B811104C00E94DE2B14
:103430000E949B140E94851460936C0370936D032B
:1034400080936E0390936F036E7F61F40E949B14D0
:103450000E94851460936C0370936D0380936E03D8
:1034600090936F030E9476141092560280916C0321
:1034700080FF03C086950E940B1A81E0809354025E
:1034800008950E94851460936C0370936D0380937C
:103490006E0390936F030E94761480916C0380FFFB
:1034A00003C086950C940B1A0895ECE6F3E0808136
:1034B0008160808386950C940B1A10925302809140
:1034C000520281110E94551A0C948E190F931F936A
:1034D000CF93DF9380915602882309F49DC0809199
:1034E0005502E0916C03E695E81BE0934E028230B2
:1034F000C9F5F0E0ED5DF44FE491CE2FD0E008E3A4
:1035000015E180914F02882389F010924F020E94AA
:10351000C12C9E0120953095820F931F90934D02F0
:1035200080934C02109251021092500280914C02F2
:1035300090914D020E94CD2C8C179D0708F46CC011
:10354000E0914C02F0914D02CE0FDF1FD0934D025F
:10355000C0934C028CE492E0F801DF91CF911F916F
:103560000F910994863049F4F0E0E05EF44FE49165
:10357000CE2FD0E00CE415E1C4CF893051F4E695AC
:10358000F0E0E35EF44FE491CE2FD0E006EA16E1DE
:10359000B8CF8F3051F4E695F0E0E65EF44FE49159
:1035A000CE2FD0E003EE16E1ACCF853149F4F0E048
:1035B000E95EF44FE491CE2FD0E006E517E1A1CF0C
:1035C000C8E2D0E009EC17E1883109F49ACF8332E0
:1035D00039F4E5E1FBE0C591D4910CE515E191CF1B
:1035E000C4EFD1E009E518E1843209F48ACFC0EDD7
:1035F000D7E005E614E1853209F083CF8E2F63E032
:103600000E94CC33E92FF0E0EE5EF44FE491CE2F30
:10361000D0E006E918E175CFDF91CF911F910F91AE
:103620000895FA01811101C0FB010994CF93DF9342
:10363000C82FD62F0E94AA148C1740F00E94AA14FB
:103640008D1720F4DF91CF910C94E9198C2FDF9125
:10365000CF910C94F9190F931F93CF938C01FB0119
:10366000C281CC2309F465C00E94982A8272F801B5
:10367000E45CFC45E431F10538F4EF5BFA4C0C9462
:1036800022340E94041AC0E08C2FCF911F910F9119
:10369000089546EF59E169EE79E10E94111BF3CFDD
:1036A00049EE59E166EF79E1F8CF44E456E167E38A
:1036B00076E1F3CF47E356E164E476E1EECF42E60C
:1036C00056E163E576E1E9CF43E556E162E676E16E
:1036D000E4CF40E856E161E776E1DFCF41E756E12C
:1036E00060E876E1DACF4DED54E166EC74E1D5CFD8
:1036F00046EC54E16DED74E1D0CF81E00E94F91900
:10370000C2CF65E082E00E94161BBDCF68E086E074
:10371000FACF6EE089E0F7CF64E18FE0F4CF67E1A4
:1037200085E1F1CF88E1EACF62E289E1ECCF83E283
:10373000E5CFC1E0A9CF849A41B34F7E51B3506128
:10374000EFB7F8949B01220F331F260F371F280F66
:10375000391F2817390741F4EFBF8FE594E001972F
:10376000F1F700C000000895DC016D91CD0178E013
:1037700051BB000000C067FF41BB660F000000C0E6
:1037800000C000C041BB00C07A9591F7E2CFCF9254
:10379000DF92EF92FF920F931F93CF93DF936C0111
:1037A0007B0164E670E088E70E94C30AEC0197FDA4
:1037B00012C010E000E0F601E00FF11F849164E612
:1037C00070E00E941F0BEC01892B29F40F5F1F4F43
:1037D0000E151F0581F70E94390CCE01DF91CF91A4
:1037E0001F910F91FF90EF90DF90CF900895089573
:1037F000E1EAF3E080E094E0DF019C011D922150BA
:103800003040E1F7F093A207E093A1078FEF9FEF1D
:103810009093A3028093A20208950E94F71B8093C5
:103820009E0280FD0FC080E880939D020E94BD0A29
:103830006DE070E083E49DE00E94C71B892B21F0BE
:1038400080E0089580E4F0CF80919E0263E070E014
:1038500081FD18C080E49DE00E94C71B892B81F781
:103860006DE070E080E39DE00E94C71B892B41F76B
:103870000E94F81B81E08093A1028093A002109225
:103880009F0208958DE39DE0E7CF20919D0236E0F1
:10389000839FC0011124629F800D911D1124811509
:1038A00024E0920714F090E080E08F559C4F9093B5
:1038B000A2078093A10708952091A1073091A20744
:1038C0002B59334040919D02642F70E0C9010E9442
:1038D000D833481B463010F4240F311D211584E0E5
:1038E000380710F030E020E02F553C4F3093A2070E
:1038F0002093A10708951F93CF93DF93162F8A304B
:1039000031F481E0DF91CF911F910C94F51C8D3043
:1039100011F480E0F7CFC091A107D091A20796E003
:10392000FE01A7E5B2E001900D929A95E1F7803E85
:10393000C8F086E0FE0111928A95E9F711111EC0C8
:10394000C091A107D091A20746E050E0BE0187E5F3
:1039500092E00E94CB34892BF9F4DF91CF911F9133
:103960000C945C1CF6E08F9FB0011124605B724FD9
:1039700046E050E0CE010E94B534E0CFE091A107CF
:10398000F091A2079F012A5F3F4F2E173F07C1F218
:10399000808180958193F9CFC15AD340CE0126E032
:1039A000969587952A95E1F721E030E0A90102C0BC
:1039B000440F551F8A95E2F7CA014091A202509127
:1039C000A302842B952B259646E0D695C7954A955C
:1039D000E1F702C0220F331FCA95E2F7822B932B27
:1039E0009093A3028093A202B8CFCF93382FE09197
:1039F000A107F091A207E15AF34020919D02622FA6
:103A000070E0CF010E94D833281B822F332369F046
:103A100066E00E94CC33C82FC15010F4CF910895B6
:103A200060E080E20E947B1CF7CF9F01280F311DD0
:103A30002115344018F080E0F0E0E0E08E0F9F2F79
:103A4000911D8F559C4F9093A2078093A107E6CFBD
:103A50008091A0029091A102992361F0811108C088
:103A600062E070E08EE29DE00E94C71B892B19F096
:103A70008091A002089581E08093A002F9CF2F9257
:103A80003F925F926F927F928F929F92AF92BF927E
:103A9000CF92DF92EF92FF920F931F93CF93DF931A
:103AA0008091A102882369F02091A2023091A302A3
:103AB0002115310531F080919F0261E070E088238B
:103AC00099F0DF91CF911F910F91FF90EF90DF90D0
:103AD000CF90BF90AF909F908F907F906F905F90AE
:103AE0003F902F9008958F5F082F10E01B01082E44
:103AF00002C0220C331C0A94E2F7A901422153218F
:103B0000452B89F390919E0290FD43C08295880FCA
:103B1000880F80748093190198013695279520931A
:103B20001C01815C80931A0110921D0124E630E093
:103B300047E050E067E171E088E70E94960B892B2F
:103B400009F0BFCFA80126E0440F551F2A95E1F7E1
:103B500080919E0280FD2BC04F555C4F04E610E023
:103B600020E430E060E488E70E94BD0B892B09F077
:103B7000A8CF0E94281DE101C095D0958091A20296
:103B80009091A302C823D923D093A302C093A20289
:103B900098CF880F880F880F8093190110921C010D
:103BA000895F80931A0187E080931D01BFCFEDE507
:103BB000F2E080E4DF011D928A95E9F7AFE8B1E019
:103BC00007E811E087E9C82E81E0D82E97E0592E4A
:103BD000772473948D91E80129918E01240F352F5C
:103BE000311D2F553C4FE82FF0E0E35AFD4F90E098
:103BF00080E0652C681A872C082E01C0880C0A9476
:103C0000EAF77901A12CE701B9907E01B820662D71
:103C10006A196770962E062E000C770BDB2D01C0FB
:103C2000DD0F9A94EAF771956195710967707727AE
:103C300001C0B6946A95EAF7BD2A6081962E9B284A
:103C40009082A39468E0A612DECF01963196883068
:103C5000910579F6CA16DB0609F0BCCF04E610E040
:103C600020E430E04DE552E07DCF8091A0029091BC
:103C7000A102911103C091E089270895882369F07A
:103C800062E070E08CE29DE00E94C71B892B19F076
:103C90008091A00208951092A0028091A002EBCF23
:103CA00080919E0280FD02C085E108958AE008951A
:103CB00080919E0280FD02C088E0089580E1089511
:103CC0008091A102882341F060E080E00E94451CC1
:103CD0000E94970F0C943F1D08950F931F93CF934D
:103CE000DF93C42FD22FFC0182818823C9F0409337
:103CF000A6020E94C12C9093A5028093A40280E2A8
:103D00008C0F883008F050C0C77081E001C0880F68
:103D1000CA95EAF7DF91CF911F910F910C94F02291
:103D20001091A602141335C08091A4029091A502AF
:103D30000E94CD2C883C910560F5C0E2CD0F1D1787
:103D4000B9F080E2810F883040F4177081E001C043
:103D5000880F1A95EAF70E94F722C83048F481E0EC
:103D60009D2F977001C0880F9A95EAF70E94F02264
:103D7000802F0E94D522C830B8F4D77081E001C0EE
:103D8000880FDA95EAF7DF91CF911F910F910C948C
:103D9000F72280E28C0F883038F4C77081E001C0D0
:103DA000880FCA95EAF7EFCFDF91CF911F910F915E
:103DB00008950F939C01CB01253F4CE5340759F141
:103DC000A8F42A3DFCE53F0701F12B3D4CE5340703
:103DD000D1F1293D3C4591F406E221EE41EE69ED39
:103DE0007CE50E946D1E80E00F910895273FFCE561
:103DF0003F07E9F0B0F0283F3C45F9F0FC01828133
:103E0000882339F11092A602EFCF07E225EE45EEA6
:103E10006AED7CE5E6CF06E221EE40EE65EF7CE55B
:103E2000E0CF07E225EE44EE66EF7CE5DACF06E26E
:103E300021EE42EE67EF7CE5D4CF07E225EE46EEB9
:103E400068EF7CE5CECF08E221E045EE6BED7CE546
:103E5000C8CF81E0C9CFCF93DF93EC01FB01828112
:103E6000882309F419C1C230FCE5DF07C0F1C6316F
:103E70009CE5D90730F09E012C5F3C452930310587
:103E800070F50E944D2B9093A8078093A707C0312F
:103E9000ECE5DE0709F4CFC008F05BC0C8308CE564
:103EA000D80709F4B6C088F5C430ECE5DE0709F49C
:103EB000A8C0C0F4C2308CE5D80709F49CC080913A
:103EC000A7078260C330DC4509F498C08091A7073A
:103ED0009091A8070E945B2B0E94552580E0DF91FE
:103EE000CF9108958091A7078061C630ECE5DE0789
:103EF00009F484C08091A7078860C730DC4508F4C6
:103F00007DC08091A707806279C0CC308CE5D8074E
:103F100009F489C070F48091A7078C60CA30ECE581
:103F2000DE0709F46BC008F478C08091A7078E7F84
:103F300065C0CE308CE5D80709F479C08091A70719
:103F40008B7FCF30DC4508F459C08091A7078F7E66
:103F500055C0CD3FECE5DE0709F457C030F5C3315D
:103F60008CE5D80709F46FC078F4C131ECE5DE07C1
:103F700009F465C0C231DC4509F0A8CF0E9455257F
:103F80008091A7078F773AC0C5318CE5D80709F42F
:103F900062C008F476C08091A8078160CC3FDC4500
:103FA00009F094CF8093A80791CFC130FDE5DF07DA
:103FB00009F44DC088F48091A8078D7FCF3F9CE520
:103FC000D90781F38091A8078E7FC115DD4550F395
:103FD0008091A8078360E6CFC330FDE5DF0709F4D1
:103FE00059C008F444C080E0C430DD4509F06ECF0C
:103FF0000E94E02B6BCF8091A70781608093A70779
:1040000065CF8091A7078460F9CF8091A80782606F
:10401000C9CF8091A7078064F1CF0E945525809178
:10402000A7078068EBCF8091A7078D7FE7CF8091AE
:10403000A707877FE3CF8091A7078F7DDFCF809190
:10404000A7078F7BDBCF8091A707837FD7CF809196
:10405000A8078C7FA7CF8091A70782FB992790F9AB
:1040600021E0922790FB82F990FB83F9C7CF8091E2
:10407000A807982F909591708E7F892B90FB81F9DE
:1040800091CF0E9455259091A707892F97FB87F91B
:104090008058B4CF81E0ACCF81E021CFCF93DF93C4
:1040A000EB0186319C4511F50E94982A9A8199234B
:1040B00099F08A7A91E009F490E09093A702811137
:1040C00009C089E20E94732A0E94D72A80E0DF910A
:1040D000CF91089585E3F6CF8091A702811104C0A6
:1040E00089E20E947A2AF0CF85E3FBCF81E0EFCF0F
:1040F000089508958091B502811114C00E9478201E
:1041000081E08093B5020E94C12C9093B402809309
:10411000B3021092A802E9EAF2E08AE0DF011D9200
:104120008A95E9F708951F93CF93DF93EC01FB0184
:104130001281111106C011E0812FDF91CF911F91E3
:1041400008958091B502882381F18091B302909106
:10415000B4020E94CD2C823C914068F7CE0190566B
:10416000811520E2920720F0905E8115904108F4BD
:10417000DD278091A802853098F4E82FF0E0EE0F5B
:10418000FF1FE755FD4FD183C0838F5F8093A80247
:104190000E94C12C9093B4028093B30210E0CCCF64
:1041A0001092B5020E947920F3CFC731DC4519F691
:1041B0000E947A20C1CF9093BB028093BA020895E7
:1041C000E091BA02F091BB02309721F00190F081AA
:1041D000E02D099480E00895E091BA02F091BB02CD
:1041E000309711F480E008950190F081E02D099559
:1041F0000895E091BA02F091BB02309721F002805D
:10420000F381E02D099408952091B8023091B9020C
:104210002817390771F09093B9028093B802E091A2
:10422000BA02F091BB02309721F00680F781E02DB1
:10423000099408952091B6023091B70228173907E2
:1042400071F09093B7028093B602E091BA02F091B8
:10425000BB02309721F00084F185E02D0994089588
:1042600085B7806885BF85B7806885BF0895089544
:1042700008950C9437210C94B40F0E9430210E94B1
:1042800038210C94392181E008950C94432108953C
:1042900008950E94B82C0E94160A80E00E940D1C0E
:1042A0000E94242D0E940E1A0C943B214F925F9283
:1042B0006F927F928F929F92AF92BF92CF92DF9236
:1042C000EF92FF920F931F93CF93DF93CDB7DEB79B
:1042D0002A970FB6F894DEBF0FBECDBF0E944721CC
:1042E0000E9448210E942D0A982E0E944521882371
:1042F00009F496C04DEBA42E42E0B42E10E000E08D
:10430000802E802F0E94080A2B013C01F501C190EC
:10431000D190E190F1905F01C414D504E604F70454
:1043200009F478C08091600381FD0E94150AB701ED
:10433000A601442555256625772520E0C12CD12CE2
:104340007601C394DB01CA018C219D21AE21BF21DE
:10435000892B8A2B8B2B09F455C02E838F824C20FE
:104360005D206E207F2081E045284628472809F4FB
:1043700080E088870E94C12C8160782F9A87898786
:104380004E815F8168858A850E943822000F111F47
:10439000000F111FF801E354FD4F80819181A2812C
:1043A000B3818C259D25AE25BF2580839183A28373
:1043B000B3830E94661A0E94601E91100E94281DFD
:1043C0000E94E0209091BC028917D9F10E94E02060
:1043D0008093BC022A960FB6F894DEBF0FBECDBF05
:1043E000DF91CF911F910F91FF90EF90DF90CF90D1
:1043F000BF90AF909F908F907F906F905F904F9005
:104400000C94AF112F5FCC0CDD1CEE1CFF1C243173
:1044100009F098CF0F5F1F4F0530110509F070CFDD
:104420008FEF89838A831B820E94C12C8160782F41
:104430009D838C8349815A816B818D810E943822B2
:10444000B8CF2A960FB6F894DEBF0FBECDBFDF916E
:10445000CF911F910F91FF90EF90DF90CF90BF9081
:10446000AF909F908F907F906F905F904F90089546
:10447000CF93DF93CDB7DEB72B970FB6F894DEBF9F
:104480000FBECDBF4F83588769877A878B871E827F
:104490001D8285E0FE013796DE01119601900D9296
:1044A0008A95E1F749815A816B817C818D819E815A
:1044B0002B960FB6F894DEBF0FBECDBFDF91CF9124
:1044C0000C940728FC01808191810C94452ACF939C
:1044D000C82F882309F43FC08CEF8C0F813AA0F4D9
:1044E0006C2F80911E0190911F010E94F72B882351
:1044F00029F08C2F0E947A2A0E94D72A8C2F0E94A2
:10450000732ACF910C94D72A80E28C0F883048F41C
:10451000C77081E001C0880FCA95EAF70E949B2A04
:10452000F0CFEBE5EC0FE33040F4F0E0EB53FE4F5F
:10453000808190E0CF910C940421C85AC73158F47F
:10454000EC2FF0E0EE0FFF1FE956FE4F80819181C6
:10455000CF910C941A21CF910895882329F19CEFD3
:10456000980F913A20F40E947A2A0C94D72A90E26C
:10457000980F983050F4877091E001C0990F8A9598
:10458000EAF7892F0E94A12AF0CF9BE5980F93307C
:1045900020F490E080E00C940421885A873120F4C4
:1045A00090E080E00C941A210895CF93C82F0E94C8
:1045B0006722C93369F42FEF87EE93E021508040E2
:1045C0009040E1F700C000008C2FCF910C94AD22F9
:1045D0002FEF89EF90E0215080409040E1F7F2CF3B
:1045E000882321F00E949B2A0C94D72A08958823BF
:1045F00021F00E94A12A0C94D72A0895BF92CF924D
:10460000DF92EF92FF920F931F93CF93DF937C0182
:10461000D62FC72FFC01058102950F701281111151
:104620000E94B82A0E94912AD82E882391F0112343
:10463000E9F08C2F807F803421F080E28D0F88306C
:10464000A8F082E00E94222B0E94912A91E0D82EAD
:10465000D926CC2EC2949FE0C922FBE0FC15A8F11C
:10466000EC2DF0E0EB5AFA4C0C942234D12CF1CF23
:104670000C2F0F70C07F11F00295007F1123A9F05D
:10468000002359F080E28D0F883010F0D11109C05D
:10469000802F0E949B2A0E94D72A8D2F0E9467227A
:1046A00014C0802F0E94AB2AF6CF8D2F0E94AD221E
:1046B000002359F080E28D0F883010F0D1112BC00B
:1046C000802F0E94A12A0E94D72AEC2DE850FF0BD0
:1046D000349720F40E94E0200E94AF11DD2009F4FD
:1046E0007BC10E948D2A80FD77C1F70112820E9452
:1046F000872A0E941329C7010E940D250E94872A3C
:10470000DF91CF911F910F91FF90EF90DF90CF90AD
:10471000BF900C943429802F0E94B12AD4CF2C2F23
:104720002F70B22EC07FC03219F0B29480EFB82241
:10473000DD2339F0D13019F1112361F1002321F18A
:10474000ACCF112381F0011106C00E94BE2A8B2933
:104750000E94F022BACF0130C1F70E94BE2A8B29F5
:104760000E94C42AB2CF011106C00E94CD2A8B2D0F
:104770000E94F722AACF013009F4A7CFF6CF112368
:1047800029F0063008F0A1CF8B2DE2CF053008F0DC
:104790009CCFEDCF002359F3D93309F015C13FEF7A
:1047A00087EE93E0315080409040E1F700C0000078
:1047B0008D2F0E94AD2289CF8C2F86958695837090
:1047C00069F0813009F081CF8D2F9C2F93701111EA
:1047D00002C090E080E00E941A2177CF8D2F9C2F9D
:1047E0009370111102C090E080E00E9404216DCF0F
:1047F0008C2F837009F041C0111167CF4D2F429566
:1048000046954770440F440F0D2F0F7010E030E0B5
:1048100020E0042E04C0000F111F221F331F0A9432
:10482000D2F760E070E0CB01D4FF0FC06FE070E022
:1048300080E090E004C0660F771F881F991F4A959B
:10484000D2F76095709580959095C695C695C37082
:10485000602B712B822B932BC23049F058F4C1305E
:1048600019F00E94C52831CF0E94B3282ECF0E9494
:10487000D7282BCF0E94B12828CF8695112311F07D
:104880008C2F8170882309F420CF4D2F42954695B7
:104890004770440F440F0D2F0F7010E030E020E000
:1048A000042E04C0000F111F221F331F0A94D2F7D9
:1048B00060E070E0CB01D4FF0FC06FE070E080E0FB
:1048C00090E004C0660F771F881F991F4A95D2F7A2
:1048D0006095709580959095C695C695C370602B30
:1048E000712B822B932BC23049F058F4C13019F050
:1048F0000E948A29EACE0E947829E7CE0E949C294C
:10490000E4CE0E94ED28E1CECF70112329F08C2F48
:104910000E9413298D2F1CCF8D2F0E94F7228C2FE0
:104920000E943429D2CED23F89F160F4D03FC9F041
:10493000D13F29F1112309F442C00111AECE8C2FD1
:104940008F7121C0D33F39F1D43FA1F7112369F111
:10495000CF718C2F0E94132963E08C2F0E940D2BA6
:10496000B4CE112341F0053008F0AFCE8C2F8F71FB
:104970000E945729AACE063008F0A7CEF7CF8C2F79
:104980008F71112369F20E9413299FCE8C2F8F7192
:104990001123C9F3C5CF112329F08C2F8F710E94E9
:1049A000FE2893CE0E94F92890CE81E00E94222B0F
:1049B000023008F48ACE82E00E94222B86CE0111BA
:1049C000EBCE8C2F8F71ACCFEFEFF9EF20E0E15001
:1049D000F0402040E1F7EACEDF91CF911F910F9197
:1049E000FF90EF90DF90CF90BF9008950F931F93AB
:1049F000CF93DF93EC01688179818A810E944F2AED
:104A00008C010E94AE290E94B028B801CE01DF912E
:104A1000CF911F910F910C94FE22CF93DF93EC0165
:104A20008B819C81892B29F08881998189238F3FF3
:104A300059F4DF91CF910895CE010E94F624CE0162
:104A4000DF91CF910C948210CE010E9460118111F0
:104A5000F3CF0E94912A882361F38A81882349F346
:104A600082E0DF91CF910C94222B882321F00E94C9
:104A7000AB2A0C94D72A0895882321F00E94B12AEA
:104A80000C94D72A08950E94B82A0E94BB2A0E943B
:104A9000D72A90E080E00E94042190E080E00C940E
:104AA0001A210E94812A0C9443250E94A82A0C9462
:104AB0005125E92FE295EF70E250EE3070F4F0E00E
:104AC000EF59FA4C0C942234803F19F020F4883EC0
:104AD00020F481E00895843FE1F380E00895883E6A
:104AE000C0F3813FD1F7F5CF93FB882780F9089574
:104AF0000E94452A0C945925CF93DF9300D000D013
:104B00000F92CDB7DEB70F900F900F900F900F90D0
:104B1000DF91CF910895CF93DF9300D000D000D0E4
:104B2000CDB7DEB726960FB6F894DEBF0FBECDBF69
:104B3000DF91CF9108951F93CF93DF93C091D2025D
:104B400016E08091D3028C1304C0DF91CF911F91A6
:104B50000895D0E01C9FF0011D9FF00D1124EC5230
:104B6000FD4F4081518162817381848195810E94D2
:104B70008B252196C770E5CF409104035091050322
:104B800060910603709107038091080390910903D7
:104B90000C948B252091D2029091D30256E02913D8
:104BA00002C080E0089530E0529FF001539FF00D65
:104BB0001124EC52FD4F7181761306C07081781379
:104BC00003C07281741304C02F5F3F4F2770E7CF7B
:104BD00081E008951F93CF93DF9380910903807F35
:104BE000A9F480910603882389F08091D202C091B4
:104BF000D3026091040370910503A0910703B09163
:104C00000803D62FD72316E0C81304C0DF91CF9135
:104C10001F91089590E0109711F0DF3F19F401966D
:104C20008770F2CF189F9001199F300D1124F90160
:104C3000EC52FD4F41814713F2CF40814613EFCF35
:104C400042814111ECCF438154814A1B5B0B483CAC
:104C5000510528F7809109038F70806180930903C3
:104C6000F901E752FD4F80818F708061808384E07D
:104C700093E00E940D25DF91CF911F910C949B250D
:104C80008F929F92AF92BF92CF92DF92EF92FF925C
:104C90000F931F93CF93DF93CDB7DEB761970FB616
:104CA000F894DEBF0FBECDBF8C0185E0F801DE01B8
:104CB0001D9601900D928A95E1F7D801EC9011961E
:104CC000FC9011971296CC90129784E0A82E83E066
:104CD000B82E40910703509108034115510509F47E
:104CE00074C19091040320910503892F82238F3F83
:104CF00009F46BC113968D909C901497D090060385
:104D0000F401E41BF50BDD2009F40AC180910903CD
:104D1000382F307FE83CF10508F0C1C0311189C05F
:104D2000DC2C2F1126C09E1124C0C11022C08F7010
:104D30008061809309030E94BC25C5010E940D2556
:104D400080910903D80115968C938D2D61960FB62D
:104D5000F894DEBF0FBECDBFDF91CF911F910F91B1
:104D6000FF90EF90DF90CF90BF90AF909F908F908B
:104D700008958114910429F08F2D8E218F3F09F021
:104D800043C180E080FF15C04C2D6F2D8E2D0E94F9
:104D9000CA25882371F084E093E00E940D2586E007
:104DA000E4E0F3E0DF011D928A95E9F70E94BC255B
:104DB0003EC0892829F08F2D8E218F3F09F021C117
:104DC00080E0B82FB170AB2E80FF29C04C2D6F2D25
:104DD0008E2D0E94CA25B82E811121C0ED86FE8637
:104DE0008D859E850E94452A292F22952F7022307D
:104DF00050F0243078F49F7051F0F8019581907F45
:104E000031F4DB2CA2CF9F7011F08823D1F3805EA8
:104E10008830B8F3C8010E940D25BA2CF2CFCC20FF
:104E200009F493CF80910903816080930903D12C09
:104E30008CCF2F1105C09E1103C0CC2009F48DC06A
:104E4000ED86FE868D859E850E947825882319F142
:104E5000CC2009F180910903803270F02091040385
:104E60003091050338872F8319869B868A868C8725
:104E7000CE0107960E940D2586E0F801A4E0B3E07C
:104E800001900D928A95E1F70E94EA250E94BC25C7
:104E9000DD24D3945ACFC8010E940D25F9CF3111DA
:104EA00012C0782D998A888AA7016C2D89890E9461
:104EB0007C2584E093E00E940D2586E0F5011192A7
:104EC0008A95E9F773CF2F110FC09E110DC0C11045
:104ED0000BC015968C93C8010E940D2586E0F50144
:104EE00011928A95E9F731CFED86FE868D859E85F4
:104EF0000E947825882379F2CC2069F280910903F9
:104F0000803208F4B9CF20910403309105033A832D
:104F100029831B829D828C828E83CE010196AACF2B
:104F2000E83CF10508F043C0DC2CCC2009F4B3CFF9
:104F30002F112CC09E112AC08091090380FD1DC035
:104F4000982F907FD1F015968C931597903F39F05C
:104F5000982F907F905F8F70892B15968C93C80146
:104F60000E940D2586E0F801A4E0B3E001900D92C7
:104F70008A95E1F70E94BC25E8CE86E0F801A4E01E
:104F8000B3E001900D928A95E1F7DFCEED86FE86C3
:104F90008D859E850E94782581116ECF80910903B1
:104FA000816080930903C8010E940D25CECE782D23
:104FB000998A888AA7016C2D89890E947C2586E0C0
:104FC000F50111928A95E9F7D5CFCC2009F463CF8A
:104FD000ED86FE868D859E850E947825D82E8823B5
:104FE00009F459CF86E0F801A4E0B3E001900D92F6
:104FF0008A95E1F784E093E00E9462220E94EA250C
:10500000B9CF81E08C25DDCE81E08C25BBCE1F930E
:10501000CF93DF93CDB7DEB72C970FB6F894DEBFF2
:105020000FBECDBF4F83588769877A878B879C8750
:10503000CE0107960E944026882369F08A859B85C9
:10504000892B39F04F815885842F85238F3F09F0B4
:1050500071C016E05FC086E0FE013796DE01119652
:1050600001900D928A95E1F78A859B85892B89F3BA
:105070008F81988589238F3F61F32091D30230E09F
:10508000C9010196877099274091D20248171906E5
:1050900071F40E9455251092D3021092D20286E03C
:1050A000E4E0F3E0DF011D928A95E9F7D2CF96E0C4
:1050B000929FD001939FB00D1124AC52BD4FFE01C1
:1050C000319601900D929A95E1F78093D3020E9458
:1050D0009B25BFCF819FC00111248C529D4F0E9400
:1050E00040268823E9F0E091D2021E9FF0011124AE
:1050F000EC52FD4F408151816281738184819581A1
:105100000E948B258091D20290E0019687709927AA
:105110008093D2028091D2029091D3028913DACF88
:105120002C960FB6F894DEBF0FBECDBFDF91CF91A6
:105130001F91089569857A858B859C850E948B25B2
:1051400088CF08950C94A1280E94A22860934F0351
:105150007093500380935103909352030C94432512
:1051600008950C94A4280F931F9300914F0310915E
:1051700050032091510330915203602B712B822BED
:10518000932B1F910F910C94A4280F931F930091C0
:105190004F0310915003209151033091520360232B
:1051A0007123822393231F910F910C94A4280F93B2
:1051B0001F9300914F0310915003209151033091A0
:1051C000520360277127822793271F910F910C9418
:1051D000A4280C94A1280C94E9280E94EB28609341
:1051E0004B0370934C0380934D0390934E030C94A8
:1051F000432560E070E0CB010C94ED280F931F93E2
:1052000041E050E060E070E08A019B0104C0000FC3
:10521000111F221F331F8A95D2F7C901B8011F91B0
:105220000F910C94ED280F931F9341E050E060E044
:1052300070E004C0440F551F661F771F8A95D2F790
:1052400080914B0390914C03A0914D03B0914E037C
:105250008A019B01082B192B2A2B3B2BC901B80172
:105260001F910F910C94ED280F931F9341E050E094
:1052700060E070E004C0440F551F661F771F8A95D9
:10528000D2F7CB01BA016095709580959095009109
:105290004B0310914C0320914D0330914E0360233A
:1052A0007123822393231F910F910C94ED280F9368
:1052B0001F9341E050E060E070E004C0440F551FD0
:1052C000661F771F8A95D2F780914B0390914C030C
:1052D000A0914D03B0914E038A019B010827192725
:1052E0002A273B27C901B8011F910F910C94ED2883
:1052F0000F931F9300914B0310914C0320914D038A
:1053000030914E03602B712B822B932B1F910F91A9
:105310000C94ED280F931F9300914B0310914C03B5
:1053200020914D0330914E036023712382239323F8
:105330001F910F910C94ED280F931F9300914B0335
:1053400010914C0320914D0330914E03602771273B
:10535000822793271F910F910C94ED28089524E143
:10536000929F800D1124982F977041E001C0440F47
:105370009A95EAF786958695869595E0899FF0013E
:105380001124E65FFC4F90E080E070E05191DF0176
:1053900011979B01082E02C0369527950A94E2F7D3
:1053A000217021952527242325272C9301968530CC
:1053B000910561F7089524E1929F800D1124982FA3
:1053C000977086958695869525E0829FF001112439
:1053D000E65FFC4F50E040E080E0219130E0092E94
:1053E00002C0369527950A94E2F721703327042EE0
:1053F00001C0220F0A94EAF7822B4F5F5F4F4530BE
:10540000510559F70895BF92CF92DF92EF92FF9224
:105410000F931F93CF93DF938C01C0904B03D090D9
:105420004C03E0904D03F0904E0380914F03909118
:105430005003A0915103B0915203C82AD92AEA2AF5
:10544000FB2ACFE1D0E0BC2ED701C6010C2E04C050
:10545000B695A795979587950A94D2F780FD0EC0CB
:10546000219788F7B12C8B2DDF91CF911F910F9150
:10547000FF90EF90DF90CF90BF900895B8018C2FF0
:105480000E94CB11019761F3EECFCF93DF93EC0134
:105490000E94032ABE01DF91CF910C94CB111F9380
:1054A000CF93DF93EB019091D102992331F0CB019F
:1054B000DF91CF911F910C94452A882379F0CB017D
:1054C0000E94032A182F682FCE010E94AF29BE0127
:1054D000812FDF91CF911F910C94CB11CB010E94B2
:1054E000DB29182FF4CF682F80911E0190911F01A6
:1054F0000C942D2C682F80911E0190911F010C940B
:105500002F2C80911E0190911F010C94312C8091C1
:1055100053038595859585950895809153038770EC
:10552000089590915303977081E009F480E0089505
:1055300080915F03089590915F03892B80935F03AF
:105540000895809590915F03982390935F03089549
:1055500010925F03089590915E03892B80935E0300
:105560000895809590915E03982390935E0308952B
:1055700010925E03089510925D0308958091540384
:10558000089508950C94C12A90915403981721F01E
:10559000809354030C94C22A089580915403882365
:1055A00029F01092540380E00C94C22A0895E091EF
:1055B0001E01F0911F0180915F038083E0911E0125
:1055C000F0911F01808190915E03892B8083E0918F
:1055D0001E01F0911F01808190915D03892B8083D2
:1055E00090915403992381F0E0911E01F0911F01E5
:1055F0008081892B808380911E0190911F010E94E0
:10560000E52B81110E94CD2A80911E0190911F01EE
:105610000C94F92008950C940A2B98E0899F90012E
:105620001124622B609353030E941329809153032A
:105630008595859585950C940B2B1092530380E0EE
:105640000C940B2B909153038095892380935303E3
:10565000282F277071F4282F082E000C330B921777
:10566000130639F08595859585950E9434290C940B
:105670001D2B089590E080E00E94E63421E08C3EEE
:105680009E4F09F020E0822F089582E090E00C9474
:10569000D83483E090E00C94D834CF9384E090E049
:1056A0000E94D834C82F81E290E00E94D834982F0D
:1056B0008C2FCF910895CF93C92F682F84E090E06D
:1056C0000E94EC346C2F81E290E0CF910C94EC348A
:1056D000AB01BC018FE090E00C94FE34AB01BC0147
:1056E00083E190E00C94FE3460E070E0CB010C9418
:1056F0006E2B60E070E0CB010E94682B0C94742B41
:105700006CEE7EEF90E080E00E940A3560E082E07F
:1057100090E00E94EC3460E083E090E00E94EC3482
:1057200010924F03109250031092510310925203A3
:1057300060E084E090E00E94EC3460E081E290E080
:105740000E94EC3460E085E090E00E94EC3460E080
:1057500086E090E00E94EC346FEF87E090E00E94DA
:10576000EC3440E050E0BA0188E090E00E94FE3462
:1057700060E08DE090E00E94EC3440E050E0BA013F
:1057800088E190E00E94FE3460E087E190E00E94B2
:10579000EC3440E050E0BA018CE190E00E94FE342D
:1057A00060E080E290E00E94EC3440E050E0BA011A
:1057B00088E190E00E94FE340C94792B0C94802BAD
:1057C000682F8EE090E00C94EC349C012E5F3F4FEC
:1057D000AC01485F5F4F80E02417350709F4089556
:1057E000F90191919F019923B9F38F5FF5CF66235A
:1057F00049F0FC01329608962191261729F0E81706
:10580000F907D1F780E0089581E008959C01FC013B
:1058100032969FEF80E04191461751F09F3F19F477
:10582000411101C0982F8F5F8630A9F79F3F09F47F
:105830000895290F311D97FD3A95F9016283089566
:10584000FC01329608962191261303C0DF011197BF
:105850001C92E817F907B9F708950C94062C0C94DC
:10586000202C029626E0FC0111922A95E9F7089572
:1058700008950C94382C0E94392C8091AD07843007
:1058800059F11092610388E190E020E40FB6F8949A
:10589000A895809360000FBE2093600080E00E9476
:1058A000AF110E947D190E94392C83B7817F8460DB
:1058B00083BF83B7816083BF7894889583B78E7FD9
:1058C00083BF0FB6F894A89580916000886180939B
:1058D0006000109260000FBE0895CF930E94130ADB
:1058E0000E942D0A0E94140AC0E08C2F0E94080A10
:1058F000672B682B692B31F4CF5FC530B1F780E09F
:10590000CF91089581E0FCCF08950C94842C0E94DF
:1059100055250E94E0200E94AF110E945D1A0C9450
:10592000852C1F921FB61F9211248F939F93AF93C4
:10593000BF9380916103811113C08091A30790915F
:10594000A407A091A507B091A6074196A11DB11D7E
:105950008093A3079093A407A093A507B093A607ED
:10596000BF91AF919F918F911F901FBE1F9018956F
:1059700082E084BD93E095BD9AEF97BD80936E0061
:1059800008952FB7F8948091A3079091A407A09150
:10599000A507B091A6072FBF08959C014FB7F894B3
:1059A0008091A3079091A407A091A507B091A607A5
:1059B0004FBF821B930B089578941F921FB61F92BE
:1059C00011248F939F93AF93BF938091A3079091DE
:1059D000A407A091A507B091A6070196A11DB11D2E
:1059E0008093A3079093A407A093A507B093A6075D
:1059F000BF91AF919F918F911F901FBE1F901895DF
:105A000081E08093E00080E28093D8001092C9008A
:105A10008FE19EE40197F1F700C0000087E090EB72
:105A2000DC018093B6079093B707A093B807B093B3
:105A3000B90788E19CE00FB6F894A89580936000C0
:105A40000FBE90936000FFCF0E943A2B811102C0DD
:105A50000E94DE2B0E94452B809360030E944D2BF9
:105A60009093A8078093A7070E94492B682F70E0A6
:105A700090E080E00E94B12860914B0370914C034C
:105A800080914D0390914E030C94EB2880916A0312
:105A900008950895CF93DF9300D00F92CDB7DEB76E
:105AA0009091AD07943019F589837B836A8382E0F6
:105AB0008093E9008FEF9091E800815095FD06C03A
:105AC00095ED9A95F1F700008111F5CF8091E800EE
:105AD00085FF0DC050E040E063E070E0CE0101962C
:105AE0000E943B2F8091E8008E778093E8000F9012
:105AF0000F900F90DF91CF910895BC0184E00C943A
:105B00004A2DBC0183E00C944A2DCF93DF93EC0126
:105B100081E08093E9008FEF9091E800815095FD3E
:105B200006C095ED9A95F1F700008111F5CF8091AF
:105B3000E80085FF14C050E040E068E070E0CE016E
:105B40000E943B2F8091E8008E778093E80088E0E8
:105B5000FE01A2E6B3E001900D928A95E1F7DF9194
:105B6000CF9108958091AC07811109C00E94CB307C
:105B70000E9428318091E20084608093E2000895C1
:105B80001092AC070895089508950C94872C42E074
:105B900061EC81E00E94473042E261EC82E00C94CB
:105BA00047308091AF07833009F45FC030F4813013
:105BB000C1F1823009F49BC008958A3009F487C08E
:105BC0008B3009F46DC0893009F04EC08091AE076A
:105BD000813209F049C08091B2079091B3070297D2
:105BE00008F042C08091E800877F8093E8008091B0
:105BF000E80082FF35C09091F3008091F200029797
:105C000029F48091F1008B7F813021F48091F100A3
:105C100080936A038091E8008B778093E8000C946E
:105C20007B308091AE07813AF9F48091E800877F5C
:105C30008093E8008091B2079091B307892B61F4BB
:105C400068E082E693E070E00E948A2F8091E8008D
:105C50008B778093E800089560E090E080E0F3CFD8
:105C60008091AD078111C3CF08958091AE07813A2D
:105C7000D9F78091B2079091B307892BA9F780914A
:105C8000E800877F8093E8008091E80080FFFCCFE8
:105C900080912A018093F1008091E8008E77BDCF3A
:105CA0008091AE07813201F78091B2079091B307DE
:105CB000892BD1F68091E800877F8093E8000E94CD
:105CC0007B308091B00780932A010C9455258091F8
:105CD000AE07813249F68091E800877F8093E80023
:105CE0000E947B308091B10780936B03089580916F
:105CF000AE07813A09F0B8CF8091E800877F8093A2
:105D0000E8008091E80080FFFCCF80916B03C2CF58
:105D100084B7877F84BF0FB6F894A8958091600000
:105D2000886180936000109260000FBE80E890E070
:105D30000FB6F89480936100909361000FBE0E94AB
:105D40003D210E94CB300E9428318091E200846086
:105D50008093E20078940E94B1330E94492180E24E
:105D600091E00E94DB208091AD07853039F00E94E0
:105D700056210E9447210E944821F5CF0E943B2CCA
:105D80008091AB07882379F30E946D2C882359F307
:105D90000E94252FE8CF0C94CD2E292F33272330B6
:105DA000310519F168F42130310509F444C022307D
:105DB000310509F445C090E080E030E020E025C0E6
:105DC0002132310549F122323105A9F780E490E012
:105DD00023E333E161157105C1F082E390E021E036
:105DE00033E16130710589F0E6CF99278130910563
:105DF00081F0009729F00297F1F6E0E9F2E102C0A4
:105E0000E0EBF2E1849190E09F01FA01318320837D
:105E10000895EEE9F2E1F6CF89E090E026EC32E178
:105E20006115710591F389E090E02FED32E1613069
:105E3000710559F3C0CF82E190E02FEE32E1E5CF5A
:105E40008BE390E024EB32E1E0CF80E189BD82E199
:105E500089BD09B400FEFDCF8091D8008F7D80936D
:105E6000D8008091E00082608093E0008091E000A3
:105E700081FDFCCF0895AF92BF92CF92DF92FF9247
:105E80000F931F93CF93DF936C01EB018A010E9464
:105E90009A30F82E811123C00115110539F0F8014F
:105EA00080819181C81BD90BC80ED91EB12CA12CA1
:105EB0002097A9F08091E80085FD22C08091E8003C
:105EC0008E778093E80001151105A1F0F80180811B
:105ED0009181A80EB91EB182A08285E0F82E8F2D87
:105EE000DF91CF911F910F91FF90DF90CF90BF90E6
:105EF000AF9008950E949A308823D1F2F82EEFCF08
:105F0000F60181916F018093F1002197FFEFAF1AA5
:105F1000BF0ACECFFC018091B4079091B5078617D8
:105F20009707A0F06115710529F49091E8009E771C
:105F30009093E80090E06115710551F4911108C04B
:105F40008091E80082FF34C080E00895BC01F2CF68
:105F50008091AD078823C1F18530C1F18091E800BF
:105F600083FD30C08091E80082FDEACF8091E80097
:105F700080FFE1CF8091F3002091F200382F61156E
:105F8000710519F02830310558F091E028303105BD
:105F900009F090E02091E8002E772093E800CBCF25
:105FA00081918093F100615071092F5F3F4FE7CFDE
:105FB0008091AD07882341F0853041F08091E80061
:105FC00083FFBECF81E0089582E0089583E00895C5
:105FD000FC018091B4079091B50786179707A0F050
:105FE0006115710529F48091E8008E778093E800AF
:105FF00090E06115710551F4911108C08091E8009D
:1060000082FF35C080E00895BC01F2CF8091AD07DA
:106010008823C9F18530C9F18091E80083FD31C042
:106020008091E80082FDEACF8091E80080FFE1CF17
:106030008091F3002091F200382F6115710519F05D
:106040002830310558F091E02830310509F090E012
:106050008091E8008E778093E800CBCF8491809385
:10606000F1003196615071092F5F3F4FE6CF80916B
:10607000AD07882341F0853041F08091E80083FF2F
:10608000BDCF81E0089582E0089583E00895982FC0
:10609000973028F08F708093E90081E00895909305
:1060A000E900242F762F50E0981731F07091EC0022
:1060B0002091ED005091F00021FD02C09F5FE8CFDC
:1060C0003091EB003E7F3093EB003091ED003D7F4F
:1060D0003093ED003091EB0031603093EB00709322
:1060E000EC002093ED005093F0002091EE0027FD8E
:1060F000E5CF80E008958091AE0787FF13C08091BF
:10610000E80082FF06C08091E8008B778093E8006A
:1061100004C08091AD078111F2CF08958091AD0741
:106120008823D9F38091E80080FFF8CF8091E800C0
:106130008E77ECCF2091E4003091E50095E6A9013F
:106140002091EC00822F817020FF06C08091E80032
:1061500080FF06C080E008952091E80022FD1AC06B
:106160008091AD07882389F0853089F08091EB001C
:1061700085FD0FC02091E4003091E50042175307E0
:10618000F9F29150E1F684E0089582E0089583E009
:10619000089581E008950E9439310E944131E0EE76
